:020000040800F2
:1000000000000220C91400087D0C00087F0C0008C5
:10001000810C0008830C0008850C0008000000001B
:10002000000000000000000000000000870C000835
:10003000890C0008000000008B0C00088D0C0008E3
:1000400019150008191500081915000819150008D8
:1000500019150008950C0008191500081915000855
:1000600019150008191500081915000819150008B8
:1000700019150008191500081915000819150008A8
:100080001915000819150008990C00081915000821
:10009000A90C000819150008191500081915000801
:1000A0001915000819150008191500081915000878
:1000B0001915000819150008191500081915000868
:1000C000191500081915000819150008B90C0008C1
:1000D00019150008C90C000819150008D90C0008EA
:1000E0001915000819150008191500081915000838
:1000F0001915000819150008191500081915000828
:100100001915000819150008191500081915000817
:100110001915000819150008E90C0008F90C000869
:10012000090D0008190D0008290D0008390D0008F7
:1001300019150008191500081915000819150008E7
:10014000490D0008191500081915000819150008AF
:1001500019150008590D0008690D0008790D0008EF
:1001600019150008191500081915000819150008B7
:1001700019150008191500081915000800000000DD
:0801800019150008191500080B
:1001880010B5054C237833B9044B13B10448AFF3C9
:1001980000800123237010BD100000200000000023
:1001A8000040000808B5034B1BB103490348AFF3EF
:1001B800008008BD00000000140000200040000876
:1001C80053B94AB9002908BF00281CBF4FF0FF31B6
:1001D8004FF0FF3000F070B9ADF1080C6DE904CEB6
:1001E80000F006F8DDF804E0DDE9022304B070470A
:1001F8002DE9F047089E0D4604460F46002B4AD1CC
:100208008A42944665D9B2FA82F343B102FA03FCF2
:10021800C3F120029F4020FA02F217439C404FEAA4
:100228001C4E1FFA8CF5B7FBFEF1220C0EFB117762
:1002380042EA074201FB05F090420AD91CEB020290
:1002480001F1FF3780F01B81904240F2188102399A
:100258006244121AA4B2B2FBFEF00EFB102244EA6A
:10026800024400FB05F5A5420AD91CEB040400F181
:10027800FF3280F00681A54240F2038164440238CF
:1002880040EA0140641B00211EB1DC400023C6E99E
:100298000043BDE8F0878B4208D9002E00F0EC80BF
:1002A8000021C6E900050846BDE8F087B3FA83F1E6
:1002B800002949D1AB4202D3824200F2F780841A66
:1002C80065EB030201201746002EE2D0C6E900477D
:1002D800DFE702B9FFDEB2FA82F3002B40F08F802D
:1002E8008A1A4FEA1C471FFA8CFE0121B2FBF7F568
:1002F80007FB1520220C42EA00420EFB05F0904253
:1003080008D91CEB020205F1FF3802D2904200F234
:10031800CA804546121AA4B2B2FBF7F007FB1022B6
:1003280044EA02440EFB00FEA64508D91CEB04046F
:1003380000F1FF3202D2A64500F2BA801046A4EBC3
:100348000E0440EA05409FE7C1F120078B4022FADE
:1003580007FC4CEA030C05FA01F420FA07F3FD4008
:10036800234300FA01F94FEA1C401FFA8CFEB5FB43
:10037800F0F81C0C00FB185544EA054408FB0EF580
:10038800A54202FA01F20BD91CEB040408F1FF3A6A
:1003980080F08780A54240F28480A8F10208644476
:1003A800641B9DB2B4FBF0F300FB134445EA04441C
:1003B80003FB0EFEA64508D91CEB040403F1FF302D
:1003C8006BD2A64569D9023B644443EA0840A0FBC6
:1003D8000283A4EB0E049C42C6461D4655D352D058
:1003E80056B1B9EB0E0364EB050404FA07F7CB40EA
:1003F800CC401F43C6E900740021BDE8F087C3F173
:10040800200102FA03FC20FA01F225FA01F19D40CD
:100418002A434FEA1C471FFA8CFEB1FBF7F007FB93
:100428001015110C41EA054100FB0EF58D4204FA46
:1004380003F408D91CEB010100F1FF382FD28D42DB
:100448002DD902386144491B92B2B1FBF7F507FB7D
:10045800151142EA014205FB0EF1914208D91CEB45
:10046800020205F1FF3816D2914214D9023D6244C6
:10047800521A45EA004139E73146304609E739461C
:10048800E7E61046FCE6C145AAD2B8EB020E63EBDC
:100498000C050138A4E74546EAE7034695E74046D8
:1004A800D1E7D0467CE7023D624433E708460BE7D4
:1004B8006444023843E700BF704700BF00B585B009
:1004C800002300930193029303931748174A02608D
:1004D8004FF48032426083600361037680F82030F5
:1004E8004FF08052C2624FF000628262C360012204
:1004F800C26180F83030426101F0F8F868B9082329
:10050800009301230193022302936946064801F0F0
:10051800BDF928B905B05DF804FB00F02BFAEEE749
:1005280000F028FAF6E700BF2C0000200022014066
:1005380010B588B00023039304930593069307939B
:100548000268174B9A4201D008B010BD00240194EC
:1005580003F58B335A6C42F480625A645A6C02F485
:1005680080620192019A02941A6B42F020021A6387
:100578001B6B03F020030293029B4FF480630393E9
:100588000323049303A9074801F0AAFE2246214643
:10059800122001F031FC122001F066FCD4E700BF04
:1005A800002201400014024008B50E480E4B0360BB
:1005B8000323436000238360C3604FF41022026169
:1005C8004FF4001242610376012242768376C376A5
:1005D8000377437701F025FA00B908BD00F0CAF99E
:1005E800FBE700BF780000200064004008B50E4813
:1005F8000E4B03600323436000238360C3604FF402
:10060800102202614FF40012426103760122427601
:100618008376C3760377437701F003FA00B908BD00
:1006280000F0A8F9FBE700BFA00000200068004028
:1006380010B58AB00023059306930793089309938E
:1006480003683E4A934204D03D4A934235D00AB0EB
:1006580010BD3C4A136801331360012B20D00024DD
:100668000194394B1A6B42F008021A631B6B03F0B2
:1006780008030193019B0323059302220692079224
:1006880008930923099305A9304801F029FE224659
:100698002146142001F0B0FB142001F0E5FBD6E759
:1006A80000230093284B1A6C42F000721A641B6CEA
:1006B80003F000730093009BD1E700230293224BC1
:1006C8001A6C42F080621A641B6C03F08063029318
:1006D800029B1C4A136801331360012B21D00024AC
:1006E8000494194B1A6B42F002021A631B6B03F055
:1006F80002030493049B6023059302230693079344
:10070800032308930923099305A9114801F0E8FD7B
:1007180022462146402001F06FFB402001F0A4FB57
:1007280095E700230393084B1A6C42F000721A6491
:100738001B6C03F000730393039BD0E70064004035
:10074800006800407400002000380240000C02409D
:100758000004024010B582B0002401941D4B1A6BAE
:1007680042F480021A631B6B03F480030193019B1C
:1007780022462146382001F03FFB382001F074FB67
:1007880022462146392001F037FB392001F06CFB65
:10079800224621463A2001F02FFB3A2001F064FB63
:1007A800224621463B2001F027FB3B2001F05CFB61
:1007B80022462146452001F01FFB452001F054FB4D
:1007C80022462146462001F017FB462001F04CFB4B
:1007D80002B010BD003802402DE9F0418EB000246F
:1007E80009940A940B940C940D940094514B1A6B31
:1007F80042F002021A631A6B02F002020092009A97
:1008080001941A6B42F040021A631A6B02F040021C
:100818000192019A02941A6B42F001021A631A6B50
:1008280002F001020292029A03941A6B42F0080243
:100838001A631A6B02F008020392039A04941A6B63
:1008480042F004021A631A6B02F004020492049A3A
:1008580005941A6B42F480721A631A6B02F4807260
:100868000592059A06941A6B42F080021A631A6B75
:1008780002F080020692069A07941A6B42F0200250
:100888001A631A6B02F020020792079A08941A6BEF
:1008980042F010021A631B6B03F010030893089BC5
:1008A800254F22461021384601F014FEDFF88C80CF
:1008B80022460121404601F00DFEC023099302267D
:1008C8000A960B960C9403250D9509A91C4801F06E
:1008D80007FD402309930A960B960C940D9509A9D8
:1008E800184801F0FDFC012509950A940B9509A902
:1008F800384601F0F5FC102309930A950B950C94E2
:1009080009A9384601F0ECFC4FF4D44309930A9640
:100918000B960C940D9509A90B4801F0E1FC09957B
:100928000A950B950C9409A9404601F0D9FC0EB024
:10093800BDE8F08100380240000002400004024097
:1009480000200240000802400010024008B5074895
:10095800074B03600323436040F2DC53836001F0DC
:10096800BFFD00B908BD00F005F8FBE7C80000208E
:100978000030004072B6FEE700B595B03022002185
:1009880008A803F0A7FA002303930493059306939A
:1009980007930193214A116C41F080511164126C44
:1009A80002F080520192019A02931D4B1A6842F498
:1009B80080421A601B6803F480430293029B092358
:1009C80008934FF48033099301230D9302230E9368
:1009D8004FF480020F9206221092A82211921293CD
:1009E8000723139308A801F0A7FD98B90F230393D1
:1009F80002230493002305934FF4A05306934FF466
:100A080080530793052103A801F0E6FF20B915B02C
:100A18005DF804FBFFF7AEFFFFF7ACFF00380240BC
:100A28000070004000B583B000F09AFDFFF7A4FF06
:100A3800FFF7D2FEFFF78EFEFFF740FDFFF7B4FD8C
:100A4800FFF7D4FDFFF782FF00F030F800F09AF9C5
:100A580000F0D0F900F028FB00F004FA00F02AFAC0
:100A680000F08CFB00F0C4FB00F0A4FB012201A9FC
:100A78000B4803F02EF90B4C204602F03DFA0021FA
:100A8800204602F03DFD0421204602F039FD0821F0
:100A9800204602F035FD044B0F225A63FBE700BFE6
:100AA800180500207C020020000C004008B50F4803
:100AB8000F4B03604FF48273436000238360C3606D
:100AC80002220261012242614FF4007282611822FF
:100AD800C2610362436283620A23C36202F052F86E
:100AE80000B908BDFFF746FFFBE700BF94010020EF
:100AF800003001402DE9F04389B0002303930493AB
:100B08000593069307930268414B9A4202D009B0B5
:100B1800BDE8F08304460025009503F584335A6C3C
:100B280042F480525A645A6C02F480520092009A3D
:100B380001951A6B42F002021A631A6B02F0020264
:100B48000192019A02951A6B42F001021A631B6B1B
:100B580003F001030293029B182303934FF0020949
:100B6800CDF810904FF00108CDF8148003270697B0
:100B78000526079603A9274801F0B2FB80230393B3
:100B8800CDF81090CDF814800697079603A922484F
:100B980001F0A6FB2148224B03604FF0C06343607D
:100BA8008560C5604FF48063036145618561C561F7
:100BB8000562456201F0E2F918BB184BE3649C63D7
:100BC8001848194B03604FF0C063436040238360AB
:100BD8000023C3604FF48062026143618361C36193
:100BE8000362436201F0CAF970B90E4BA3649C63B7
:100BF80000221146232001F0FFF8232001F034F9E8
:100C080085E7FFF7B7FED8E7FFF7B4FEEDE700BFCB
:100C1800003001400004024000000240D4000020DF
:100C280010640240340100205864024000B583B0CB
:100C3800002100910E4B5A6C42F480425A645A6C5F
:100C480002F480420092009A01911A6C42F080529C
:100C58001A641B6C03F080530193019B0A4605201C
:100C680001F0CAF8052001F0FFF803B05DF804FBB5
:100C780000380240FEE7FEE7FEE7FEE7FEE77047C2
:100C88007047704708B500F085FC08BD7047000044
:100C980008B5024800F058FD08BD00BF2C00002030
:100CA80008B5024800F070FF08BD00BF78000020BA
:100CB80008B5024801F0C6FF08BD00BF9401002036
:100CC80008B5024802F0A8FE08BD00BFD404002001
:100CD80008B5024802F0A0FE08BD00BF18050020B4
:100CE80008B5024802F052F908BD00BFC40200204E
:100CF80008B5024802F04AF908BD00BF0C030020FD
:100D080008B5024801F0FEF908BD00BFD400002074
:100D180008B5024801F0F6F908BD00BF1404002028
:100D280008B5024801F0EEF908BD00BF54030020E1
:100D380008B5024801F0E6F908BD00BF34010020FB
:100D480008B5024800F020FF08BD00BFA000002041
:100D580008B5024801F0D6F908BD00BF74040020A8
:100D680008B5024801F0CEF908BD00BFB403002061
:100D780008B5024802F050FE08BD00BF5C0500201F
:100D88007047000000B587B00023029303930493D3
:100D98000593009301931548154A026043608360E8
:100DA8004FF6FF72C2600361836102F011FA98B9CD
:100DB8004FF48053029302A90C4802F013FB70B958
:100DC80020230093002301936946084802F03EFC63
:100DD80040B907B05DF804FBFFF7CCFDE8E7FFF783
:100DE800C9FDEDE7FFF7C6FDF3E700BFEC01002002
:100DF8000004004000B587B00023029303930493D6
:100E08000593009301931548154A026053224260E6
:100E18008360C722C26003618023836102F0D8F92E
:100E280090B94FF48053029302A90C4802F0DAFA01
:100E380068B90023009301936946084802F006FC4C
:100E480040B907B05DF804FBFFF794FDE9E7FFF749
:100E580091FDEEE7FFF78EFDF3E700BF34020020B7
:100E68000008004000B583B00023009301930F48A9
:100E78000F4A026053224260836040F2E732C26048
:100E8800836102F0A5F950B90023009301936946E4
:100E9800064802F0DBFB28B903B05DF804FBFFF756
:100EA80069FDF1E7FFF766FDF6E700BFC402002021
:100EB8000010004000B583B00023009301930F4851
:100EC8000F4A026053224260836040F2E732C260F8
:100ED800836102F07DF950B90023009301936946BC
:100EE800064802F0B3FB28B903B05DF804FBFFF72E
:100EF80041FDF1E7FFF73EFDF6E700BF0C030020D8
:100F08000014004000B58DB000230793089309939F
:100F18000A930B930368454A93420ED0444A93427E
:100F28002DD0444A93424CD0434A934256D0434A28
:100F3800934267D00DB05DF804FB00210091404B4F
:100F48001A6C42F002021A641A6C02F00202009251
:100F5800009A01911A6B42F004021A631B6B03F0AA
:100F680004030193019B4FF48073079302230893B2
:100F780009930B9307A9334801F0B2F9DAE7002186
:100F880002912F4B1A6C42F004021A641A6C02F098
:100F980004020292029A03911A6B42F008021A6341
:100FA8001B6B03F008030393039B4FF480430793E1
:100FB8000223089309930B9307A9234801F090F99A
:100FC800B8E7002304931E4B1A6C42F008021A6417
:100FD8001B6C03F008030493049BABE70021059105
:100FE800174B1A6C42F010021A641B6C03F01003C2
:100FF8000593059B0A46362000F0FEFE362000F0D9
:1010080033FF97E7002106910D4B1A6C42F020023E
:101018001A641B6C03F020030693069B0A463720CC
:1010280000F0EAFE372000F01FFF83E700040040CD
:1010380000080040000C0040001000400014004070
:101048000038024000080240000C024000B587B09A
:1010580000230193029303930493059302680F4BB3
:101068009A4202D007B05DF804FB002300930C4BB2
:101078001A6B42F080021A631B6B03F08003009323
:10108800009B4FF4E0530193022302930122039241
:10109800059301A9034801F023F9E3E7000C004098
:1010A80000380240001C024000B58FB000230A93AC
:1010B8000B930C930D930893099301930293039355
:1010C80004930593069307932A482B4A02604360CA
:1010D80083606322C26003618023836102F078F831
:1010E800002831D14FF480530A930AA9214802F00D
:1010F80079F960BB1F4802F097F858BB00230893A2
:10110800099308A91B4802F0A1FA30BB6023019398
:10111800002202920392059201A9164802F0E8F80B
:10112800F0B904220DEB0201124802F0E1F8D0B93F
:10113800082201A90F4802F0DBF8B8B90D48FFF7FB
:1011480085FF0FB05DF804FBFFF714FCCAE7FFF753
:1011580011FCCFE7FFF70EFCD0E7FFF70BFCD5E754
:10116800FFF708FCDDE7FFF705FCE1E7FFF702FC06
:10117800E4E700BF7C020020000C004008B50A48E4
:101188000A4B03600A4B436000238360C36003611A
:101198000C2242618361C36102F086FB00B908BD7D
:1011A800FFF7E8FBFBE700BFD40400200010014074
:1011B80040420F0008B50B480B4B03600B4B4360D4
:1011C80000238360C3604FF4806202610C22426195
:1011D8008361C36102F068FB00B908BDFFF7CAFB71
:1011E800FBE700BF1805002000480040A08601006A
:1011F80008B50A480A4B03604FF4E1334360002303
:101208008360C36003610C2242618361C36102F0A1
:101218004BFB00B908BDFFF7ADFBFBE75C05002001
:10122800001401402DE9F0418CB0044600230793D7
:10123800089309930A930B930368914A934209D040
:10124800904A93427ED0904A934200F0B7800CB007
:10125800BDE8F081002500958C4B5A6C42F01002D5
:101268005A645A6C02F010020092009A01951A6BA7
:1012780042F002021A631A6B02F002020192019A0A
:1012880002951A6B42F001021A631B6B03F001030B
:101298000293029B802307930226089609964FF033
:1012A8000308CDF8288007270B9707A9784801F08D
:1012B80017F84FF40073079308960996CDF828801D
:1012C8000B9707A9734801F00BF87348734B036039
:1012D8004FF0006343608560C5604FF4806303612D
:1012E80045618561C5610562456200F047FE18BB2E
:1012F800694BA3639C636A486A4B03604FF00063C1
:101308004360402383600023C3604FF4806202611E
:1013180043618361C3610362436200F02FFE70B9C9
:101328005F4B63639C6300221146252000F064FD37
:10133800252000F099FD8AE7FFF71CFBD8E7FFF7A7
:1013480019FBEDE700240394504B1A6C42F48022F9
:101358001A641A6C02F480220392039A04941A6B9A
:1013680042F004021A631B6B03F004030493049B0A
:101378004FF4006307930225089509954FF0030879
:10138800CDF8288007270B97474E07A9304600F06D
:10139800A7FF4FF48063079308950994CDF8288038
:1013A8000B9707A9304600F09BFF224621462720CD
:1013B80000F022FD272000F057FD48E7002505959D
:1013C800324B5A6C42F020025A645A6C02F02002E6
:1013D8000592059A06951A6B42F040021A631B6B38
:1013E80003F040030693069B4FF4844307930223BC
:1013F8000893099303230A9308230B9307A92B48FF
:1014080000F06EFF2A482B4B03604FF020634360C7
:101418008560C5604FF48063036145618561C5617E
:101428000562456200F0AAFD18BB214BA3639C63CB
:101438002148224B03604FF02063436040238360C0
:101448000023C3604FF48062026143618361C3611A
:101458000362436200F092FD70B9174B63639C63AB
:1014680000221146472000F0C7FC472000F0FCFC92
:10147800EDE6FFF77FFAD8E7FFF77CFAEDE700BF64
:1014880000100140004800400014014000380240AC
:10149800000402400000024054030020406402405F
:1014A800B4030020B864024000080240001802405B
:1014B800140400202864024074040020A064024040
:1014C800DFF834D00D480E490E4A002302E0D45804
:1014D800C4500433C4188C42F9D30B4A0B4C002374
:1014E80001E013600432A242FBD3FFF749FC02F08B
:1014F800F9FCFFF797FA704700000220000000206F
:10150800100000204C400008100000203C0700207C
:10151800FEE7000010B504460E4B1A784FF47A73B4
:10152800B3FBF2F30C4A1068B0FBF3F000F0AAFC2E
:1015380068B90F2C01D901200AE0002221464FF09A
:10154800FF3000F059FC054B1C60002000E0012032
:1015580010BD00BF0400002000000020080000208B
:1015680008B50B4B1A6842F400721A601A6842F404
:1015780080621A601A6842F480721A60032000F0D0
:1015880029FC0F20FFF7C6FFFFF750FB002008BD1E
:10159800003C0240034A1168034B1B780B4413605C
:1015A800704700BFA005002004000020014B186808
:1015B800704700BFA00500204A4B5A6822F4403209
:1015C8005A605A6841680A435A600268536823F4AB
:1015D8008073536002685368016943EA01235360CA
:1015E8000268536823F04073536002685368816847
:1015F8000B4353600268936823F4006393600268A6
:101608009368C1680B439360826A374B9A4257D0FC
:101618000268936823F07063936002689368816A34
:101628000B4393600268936823F040539360026809
:101638009368C16A0B4393600268936823F00203BE
:10164800936002689368017E43EA4103936090F8CF
:101658002030002B3FD00268536843F40063536086
:101668000268536823F46043536001684B68426A18
:10167800013A43EA42334B600268D36A23F47003A9
:10168800D3620168CB6AC269013A43EA0253CB626A
:101698000268936823F4007393600268936890F873
:1016A800301043EA412393600268936823F480630F
:1016B800936002689368416943EA812393607047A5
:1016C8000268936823F0706393600268936823F05C
:1016D80040539360B0E70268536823F40063536093
:1016E800CAE700BF002301400100000F38B310B55E
:1016F8000446036C43B1236C13F0100F0BD0012088
:10170800002384F83C3010BDFEF712FF0023636409
:1017180084F83C30EFE7236C23F4885323F002036A
:1017280043F0020323642046FFF746FF002060646D
:10173800236C23F0030343F001032364E0E7012053
:10174800704770477047704770B5044603681E6855
:101758005D6816F0020F2FD005F0200262B3026C0C
:1017680012F0100F03D1026C42F4007202649A68FE
:1017780012F0405F19D1227EBAB9DA6A12F4700FFA
:1017880003D09A6812F4806F0FD15A6822F02002B1
:101798005A60236C23F480732364236C13F4805FF2
:1017A80003D1236C43F0010323642046FFF7C9FFEC
:1017B80023686FF012021A6005F0800316F0040F18
:1017C80037D0002B35D0236C13F0100F03D1236CC6
:1017D80043F40053236423689A6812F4401F21D10C
:1017E8009A6B12F4401F03D09A6812F4806F19D1D3
:1017F8005A6812F4806F15D19A6812F0405F11D1BF
:10180800227E7AB95A6822F080025A60236C23F447
:1018180080532364236C13F4807F03D1236C43F03B
:1018280001032364204600F0FBF823686FF00C02E4
:101838001A6005F0400316F0010F05D023B12368A4
:101848001B6813F0010F06D105F0806516F0200F14
:1018580000D065B970BD236C43F4803323642046FF
:10186800FFF770FF23686FF001021A60ECE7636C02
:1018780043F00203636423686FF020051D6020466F
:10188800FFF761FF23681D60E4E7000030B482B011
:101898000022019290F83C20012A00F0B68003460D
:1018A800012280F83C200A68092A40D90468E068C7
:1018B80092B202EB42021E3A4FF0070C0CFA02F207
:1018C80020EA0202E2601C68E0680A8802EB420231
:1018D8001E3A8D6805FA02F20243E2604A68062A57
:1018E8003CD81C68606B02EB8202053A4FF01F0C73
:1018F8000CFA02F220EA020262631C68606B4A6812
:1019080002EB8202053AB1F800C00CFA02F2024377
:10191800626318683E4A904250D018683C4A904228
:1019280055D0002083F83C0002B030BC70470468F2
:10193800206992B202EB42024FF0070C0CFA02F255
:1019480020EA020222611C6820690A8802EB42022E
:101958008D6805FA02F202432261BFE70C2A16D805
:101968001D68286B02EB8202233A1F2404FA02F254
:1019780020EA02022A631D68286B4A6802EB820289
:10198800233A0C8804FA02F202432A63C1E71D686D
:10199800E86A02EB8202413A1F2404FA02F220EAC2
:1019A8000202EA621D68E86A4A6802EB8202413A6A
:1019B8000C8804FA02F20243EA62AAE70A68122AC9
:1019C800ABD11448426842F480024260A5E70A6835
:1019D800103A012AA5D80F48426842F40002426032
:1019E8000A68102A9DD10C4A12680C49A1FB021200
:1019F800920C02EB82025200019202E0019A013A33
:101A08000192019A002AF9D18BE702208CE700BFE6
:101A180000200140002301400000002083DE1B431A
:101A28007047002800F0A18038B5044690F82030AF
:101A3800D3B12268136843F001031360FFF7B6FDC2
:101A4800054623685A6812F0010F10D1FFF7AEFD62
:101A5800401B0A28F5D9636A43F4003363620523FF
:101A680084F82030012038BDFEF7E2FDE1E71A686E
:101A780022F002021A60FFF799FD054623685A68AA
:101A880012F0020F0DD0FFF791FD401B0A28F5D97F
:101A9800636A43F400336362052384F8203001202D
:101AA800E1E7227E012A3DD01A6822F080021A60FE
:101AB800637E012B3BD02268136823F04003136038
:101AC800A37E012B39D02268136823F0200313600A
:101AD800E37E012B37D02268136843F010031360AC
:101AE800237F012B35D02268136823F00803136085
:101AF800637F012B33D02268136823F0040313603B
:101B0800A368E26813432269134362691343626856
:101B1800013A21681343CB6100206062012384F8F5
:101B28002030A0E71A6842F080021A60C0E72268F5
:101B3800136843F040031360C2E72268136843F058
:101B480020031360C4E72268136823F010031360AE
:101B5800C6E72268136843F008031360C8E72268E1
:101B6800136843F004031360CAE701207047704705
:101B780070477047704770477047704770477047A5
:101B880070477047704770472DE9F84F054603685E
:101B98005C69D3F804809F68D3F80CB0D3F810A020
:101BA800D3F8189014F001063BD017F0010616D0B0
:101BB80001229A6017F0020F08D117F0040F0CD118
:101BC80017F0080606D04FF4805608E0FFF7CFFF5D
:101BD800002604E0FFF7CEFF01E04FF4006617F49B
:101BE800807F0DD02B684FF480729A6017F4007FC5
:101BF80040F0868017F4806F00F0868046F4005627
:101C080017F4803F0DD02B684FF480329A6017F498
:101C1800003F40F0838017F4802F00F0838046F463
:101C2800004614F0080F07D01BF0100F04D046F43C
:101C380000762B681022DA6014F0040F02D01BF033
:101C4800080F79D114F0020F04D02B68DB6813F069
:101C5800030F78D114F0400F07D01AF0100F04D0FA
:101C680046F480662B6810221A6114F0200F02D007
:101C78001AF0080F6BD114F0100F04D02B681B69F1
:101C880013F0030F6AD114F4003F02D018F0100FBC
:101C980068D114F4803F02D018F0080F69D114F409
:101CA800004F7AD018F0040F74D014F4807F04D059
:101CB80019F0010F01D046F0010614F4007F04D09A
:101CC80019F0020F01D046F0020614F4806F04D018
:101CD80019F0040F01D046F0040614F4006F59D02F
:101CE80019F0700956D0B9F1400F65D058D8B9F13C
:101CF800200F5ED0B9F1300F42D146F0200644E003
:101D08002846FFF735FF7BE717F4006F02D046F44B
:101D1800804675E72846FFF72EFF71E72846FFF74C
:101D280028FF7EE717F4002F02D046F4803678E7C4
:101D38002846FFF721FF74E72B680822DA60284657
:101D4800FFF71CFF7EE72846FFF717FF82E72B689F
:101D580008221A612846FFF713FF8CE72846FFF789
:101D68000EFF90E72B6810225A602846FFF709FFFC
:101D78008FE72B6808225A602846FFF703FF8EE793
:101D8800B9F1100F01D146F008062A68936923F0CB
:101D9800700393612B6804225A609EB9BDE8F88FDE
:101DA800B9F1500F0BD0B9F1600FEED146F480763F
:101DB800EBE746F01006E8E746F04006E5E746F0B0
:101DC8008006E2E76B6A33436B622846FFF7DBFE67
:101DD800E4E70000074AD36823F4E0631B041B0C04
:101DE800000200F4E060034343F0BF6343F40033B0
:101DF800D360704700ED00E000B5194BDB68C3F312
:101E08000223C3F1070CBCF1040F28BF4FF0040CE8
:101E180003F1040EBEF1060F18D9033B4FF0FF3E45
:101E28000EFA0CFC21EA0C0199400EFA03FE22EA94
:101E38000E020A4300280BDB1201D2B200F1604007
:101E480000F5614080F800235DF804FB0023E5E716
:101E580000F00F001201D2B2024B1A54F4E700BF8F
:101E680000ED00E014ED00E0002807DB00F01F02A1
:101E7800400901239340024A42F82030704700BFCE
:101E880000E100E00138B0F1807F0BD24FF0E02391
:101E98005861054AF02182F8231000209861072232
:101EA8001A6170470120704700ED00E010B4036824
:101EB800D9B210390B4AA2FB014212090A4CA25CA2
:101EC800C2655F2908D923F47F7323F00303043321
:101ED8008365806D10BC704723F47F7323F0030380
:101EE8008365F6E7ABAAAAAA30400008836A82692C
:101EF80092B9012B0AD0022B02D00BB100207047F7
:101F0800C36A13F0807F28D100207047C36AB3F1F9
:101F1800C07F24D000207047B2F5005F09D0022BA3
:101F280025D9032B25D1C36A13F0807F23D1002044
:101F38007047032B03D8DFE803F01404140A0020C9
:101F48007047C36A13F0807F0DD100207047C36AC1
:101F5800B3F1C07F09D000207047012070470120ED
:101F68007047012070470120704701207047012009
:101F780070470020704701207047000070B5044684
:101F8800FFF714FB002C5BD00546022384F835309C
:101F9800002384F834302268136823F001031360A7
:101FA80023681A6812F0010F0AD0FFF7FFFA431BE3
:101FB800052BF5D920236365032084F8350070BD0F
:101FC8001A68204911406268A0680243E068024329
:101FD8002069024360690243A0690243E069024341
:101FE800206A02430A43616A04291ED01A602668DF
:101FF800756925F00705636A1D43042B07D1A36A99
:102008001D43E36A1BB12046FFF770FF90B9756165
:102018002046FFF74BFFE26D3F239340836000208B
:102028006065012384F83530C9E7E16A206B014314
:102038000A43DBE740236365012084F83500BEE7E7
:102048000120BCE73F8010F070B50446866DFFF7AD
:10205800ADFA94F83530DBB2022B06D080236365E5
:10206800002384F83430012070BD054622681368C7
:1020780023F0160313602268536923F08003536129
:10208800236CE3B12268136823F008031360226805
:10209800136823F00103136023681B6813F0010F12
:1020A80011D0FFF783FA431B052BF5D9202363656D
:1020B800032084F83500002384F83430D4E7A36C77
:1020C800002BDFD1E3E7E26D3F239340B3600123A8
:1020D80084F83530002084F83400C5E790F83530AE
:1020E800DBB2022B03D08023436501207047052310
:1020F80080F835300268136823F00103136000206C
:1021080070470000F0B583B0044600230193724B7A
:102118001D68724BA3FB0535AD0A876D3E68C26D1D
:1021280008239340334210D003681A6812F0040F52
:102138000BD01A6822F004021A60C26D082393407B
:10214800BB60436D43F001034365E26D0123934097
:10215800334209D02268526912F0800F04D0BB6064
:10216800636D43F002036365E26D042393403342D9
:1021780009D02268126812F0020F04D0BB60636DA8
:1021880043F004036365E26D10239340334224D087
:102198002268126812F0080F1FD0BB6023681A6803
:1021A80012F4802F0DD01B6813F4002F04D1236C78
:1021B8009BB12046984710E0A36C73B1204698471E
:1021C8000BE01A6812F4807F03D11A6822F0080223
:1021D8001A60236C0BB120469847E26D2023934088
:1021E800334255D02268126812F0100F50D0BB60ED
:1021F80094F83530DBB2052B0ED023681A6812F438
:10220800802F33D01B6813F4002F2AD1636C002B66
:102218003ED0204698473BE02268136823F0160317
:1022280013602268536923F080035361236CA3B1C0
:102238002268136823F008031360E26D3F2393407C
:10224800BB60012384F83530002384F83430236DD3
:10225800002B3FD0204698473CE0A36C002BE7D1E9
:10226800EBE7E36BA3B12046984711E01A6812F434
:10227800807F09D11A6822F010021A60012384F8BD
:102288003530002384F83430E36B0BB1204698478F
:10229800636DFBB1636D13F0010F17D0052384F84C
:1022A80035302268136823F001031360019B013362
:1022B8000193AB4204D823681B6813F0010FF5D1D2
:1022C800012384F83530002384F83430E36C0BB1F3
:1022D8002046984703B0F0BD00000020B5814E1B92
:1022E80000230F2B00F2EC8030B583B068E08568DE
:1022F8004FEA430E032404FA0EF425EA0405CC68D9
:1023080004FA0EF42C438460446824EA02044A6800
:10231800C2F300129A40224342605FE0DC080834AE
:1023280050F8242003F00705AD004FF00F0E0EFA09
:1023380005FE22EA0E0E0A69AA4042EA0E0240F899
:1023480024205FE0072200E0002202FA0EF22A436E
:1023580002345C4D45F824205B4A94686FEA0C020D
:1023680024EA0C05D1F804E01EF4801F01D04CEAE1
:102378000405554CA560E46802EA0405D1F804E0B8
:102388001EF4001F01D04CEA04054F4CE560646858
:1023980002EA0405D1F804E01EF4003F01D04CEA3B
:1023A8000405494C6560246822404D6815F4803F57
:1023B80001D04CEA0402444C226001330F2B7DD833
:1023C80001229A400C6804EA020C32EA0404F4D1AF
:1023D8004C6804F00304013C012C88D94A6802F0D7
:1023E8000302032A09D0C4685D000322AA4024EA34
:1023F80002048A68AA402243C2604A6802F00302C3
:10240800022A8BD004684FEA430E032202FA0EF226
:1024180024EA02044A6802F0030202FA0EF2224396
:1024280002604A6812F4403FC7D000220192274A4E
:10243800546C44F480445464526C02F48042019217
:10244800019A9C08A51C1F4A52F8255003F0030E58
:102458004FEA8E0E0F2202FA0EF225EA02051C4AF6
:1024680090423FF471AF02F5806290421AD002F5B3
:102478008062904218D002F58062904216D002F530
:102488008062904214D002F58062904212D002F528
:102498008062904210D002F5806290423FF452AFC1
:1024A800082252E7012250E702224EE703224CE7B6
:1024B80004224AE7052248E7062246E703B030BD72
:1024C800704700BF00380140003C0140003802401E
:1024D800000002400AB181617047090481617047B8
:1024E80040B338B5044603684CF6CC421A6003681A
:1024F80045F255521A60036842685A600368826858
:102508009A60FFF753F805462368DA6812F0030F5C
:102518000BD0FFF74BF8401B3128F5D92368DB684F
:1025280013F0030FF0D0032003E04AF6AA221A6042
:10253800002038BD01207047002800F0E08170B508
:1025480082B00446036813F0010F3BD09F4B9B6891
:1025580003F00C03042B2CD09C4B9B6803F00C035A
:10256800082B21D06368B3F5803F4FD0B3F5A02F77
:1025780052D0964B1A6822F480321A601A6822F4F4
:1025880080221A606368002B50D0FFF70FF80546C9
:102598008E4B1B6813F4003F14D1FFF707F8401B5C
:1025A8006428F5D90320B1E1884B5B6813F4800FE8
:1025B800D8D0864B1B6813F4003F03D06368002B08
:1025C80000F09F81236813F0020F54D07F4B9B6863
:1025D80013F00C0F3ED07D4B9B6803F00C03082BC7
:1025E80033D0E368002B68D0794B01221A60FEF7DC
:1025F800DDFF0546754B1B6813F0020F54D1FEF73B
:10260800D5FF401B0228F5D903207FE16F4A1368E4
:1026180043F480331360B5E76C4B1A6842F48022A8
:102628001A601A6842F480321A60ABE7FEF7BEFF00
:102638000546664B1B6813F4003FC3D0FEF7B6FF90
:10264800401B6428F5D9032060E1604B5B6813F4F4
:10265800800FC6D15D4B1B6813F0020F03D0E368EF
:10266800012B40F05081594A136823F0F80321697F
:1026780043EAC1031360236813F0080F42D063696B
:102688006BB3534B0122C3F8802EFEF78FFF05462C
:102698004E4B5B6F13F0020F34D1FEF787FF401BE0
:1026A8000228F5D9032031E1484A136823F0F803DA
:1026B800216943EAC1031360DDE7454B00221A6034
:1026C800FEF774FF0546414B1B6813F0020FD2D08A
:1026D800FEF76CFF401B0228F5D9032016E13C4B9E
:1026E8000022C3F8802EFEF761FF0546374B5B6F6B
:1026F80013F0020F06D0FEF759FF401B0228F5D948
:10270800032003E1236813F0040F77D02F4B1B6CD1
:1027180013F0805F33D1002301932C4B1A6C42F0E5
:1027280080521A641B6C03F080530193019B0125AE
:10273800284B1B6813F4807F23D0A368012B34D067
:10274800052B38D0214B1A6F22F001021A671A6F35
:1027580022F004021A67A368002B3DD0FEF726FF7B
:1027680006461A4B1B6F13F0020F46D1FEF71EFFE9
:10277800801B41F288339842F3D90320C6E0002534
:10278800D6E7144A136843F480731360FEF70EFF0C
:102798000646104B1B6813F4807FCED1FEF706FF68
:1027A800801B0228F5D90320B0E0084A136F43F0D4
:1027B80001031367CFE7054B1A6F42F004021A674B
:1027C8001A6F42F001021A67C5E700BF00380240DD
:1027D8000000474200700040FEF7E8FE0646524BF4
:1027E8001B6F13F0020F08D0FEF7E0FE801B41F2CA
:1027F80088339842F3D9032088E0EDB9A369002B08
:1028080000F08380484A926802F00C02082A51D0EE
:10281800022B17D0454B00221A66FEF7C7FE044666
:10282800414B1B6813F0007F42D0FEF7BFFE001B30
:102838000228F5D9032069E03B4A136C23F0805342
:102848001364DBE7394B00221A66FEF7AFFE054634
:10285800354B1B6813F0007F06D0FEF7A7FE401B20
:102868000228F5D9032051E0E369226A1343626A1A
:1028780043EA8213A26A5208013A43EA0243E26A2F
:1028880043EA0263284A5360284B01221A66FEF77E
:102898008DFE0446244B1B6813F0007F06D1FEF71B
:1028A80085FE001B0228F5D903202FE000202DE02B
:1028B80000202BE0012B2BD01B4B5B6803F480011D
:1028C800E269914226D103F03F02216A8A4223D16C
:1028D800616A47F6C0721A40B2EB811F1ED103F439
:1028E8004031A26A5208013AB1EB024F18D103F005
:1028F8007063E26AB3EB026F14D1002006E0012096
:102908007047012002E0012000E0002002B070BD05
:102918000120FBE70120F9E70120F7E70120F5E7AF
:102928000120F3E70120F1E70038024000004742A8
:1029380008B5264B9B6803F00C03042B41D0082BE9
:1029480041D1224B5A6802F03F025B6813F4800FB2
:1029580012D01E4B5968C1F388111D480023A1FBF2
:102968000001FDF72DFC194B5B68C3F301430133EC
:102978005B00B0FBF3F027E0144B5868C0F38810F5
:102988004FEA401CBCEB000C6EEB0E0E4FEA8E13A8
:1029980043EA9C634FEA8C11B1EB0C0163EB0E0325
:1029A800DB0043EA5173C90011EB000C43F100034B
:1029B800990200234FEA8C2041EA9C51FDF700FC64
:1029C800D1E7034800E0034808BD00BF00380240D3
:1029D800001BB7000024F400002800F09B8070B5AD
:1029E8000D4604464F4B1B6803F007038B4208D281
:1029F800CBB24C4A1370136803F007038B4240F0C4
:102A08008B80236813F0020F17D013F0040F04D043
:102A1800454A936843F4E0539360236813F0080F22
:102A280004D0414A936843F4604393603E4A9368F4
:102A380023F0F003A1680B439360236813F0010FA0
:102A480032D06368012B21D09A1E012A25D9364A33
:102A5800126812F0020F61D033498A6822F003022B
:102A680013438B60FEF7A2FD06462F4B9B6803F0CD
:102A78000C036268B3EB820F16D0FEF797FD801B3C
:102A880041F288339842F0D9032042E0264A12687E
:102A980012F4003FE0D101203BE0234A126812F013
:102AA800007FD9D1012034E01E4B1B6803F00703D7
:102AB800AB4207D9EAB21B4B1A701B6803F0070335
:102AC800AB422DD1236813F0040F06D0164A936841
:102AD80023F4E053E1680B439360236813F0080F75
:102AE80007D0114A936823F46043216943EAC1037C
:102AF8009360FFF71DFF0C4B9B68C3F303130B4A4E
:102B0800D35CD8400A4B18600A4B1868FEF702FDE0
:102B1800002070BD012070470120FAE70120F8E786
:102B28000120F6E7003C0240003802401840000847
:102B38000000002008000020014B1868704700BF03
:102B48000000002008B5FFF7F7FF044B9B68C3F3AC
:102B58008223034AD35CD84008BD00BF0038024036
:102B68002840000808B5FFF7E7FF044B9B68C3F34C
:102B78004233034AD35CD84008BD00BF0038024046
:102B88002840000800285AD010B50446436A33B9D3
:102B98004368B3F5827F05D00023C36102E00023B8
:102BA800036143610023A36294F85130002B40D0A5
:102BB800022384F851302268136823F0400313601D
:102BC800636803F48273A26802F404421343E26860
:102BD80002F400621343226902F00202134362699D
:102BE80002F001021343A26902F400721343E2697E
:102BF80002F038021343226A02F080021343A26AE9
:102C080002F40052216813430B60638B03F0040342
:102C1800626A02F01002216813434B602268D3698C
:102C280023F40063D36100206065012384F85130E8
:102C380010BD84F850302046FDF75CFFB8E701204E
:102C48007047704710B584B00446026851689368AD
:102C580003F04100012867D013F0020F02D011F0F1
:102C6800800F68D113F4B07F68D011F0200F65D0C1
:102C780013F0400F0FD094F85100C0B203285FD072
:102C8800606D40F00400606500200090D0680090FE
:102C980090680090009813F0200F0CD0606D40F001
:102CA800010060650020029090680290106820F092
:102CB80040001060029A13F4807F09D0636D43F0DE
:102CC800080363650023039323689B680393039BAE
:102CD800636D002B32D02268536823F0E003536001
:102CE800012384F8513011F0030F31D02268536862
:102CF80023F003035360E36C4BB1174A1A65E06C89
:102D0800FFF7ECF918B1636D43F040036365A36CFA
:102D1800A3B1114A1A65A06CFFF7E0F970B1636DB1
:102D280043F04003636509E011F0400F94D0236C31
:102D38002046984702E0636C2046984704B010BDCF
:102D480000230193D368019393680193019BF5E7EE
:102D58002046FFF776FFF1E7652D000808B5806B80
:102D68000023C387C386FFF76CFF08BD30B4036A2E
:102D780023F001030362036A4268846924F0730C38
:102D88000C6844EA0C0423F0020C8B6843EA0C0339
:102D9800114DA84203D005F58065A84205D123F05E
:102DA8000803CD682B4323F004030B4DA84203D03E
:102DB80005F58065A84207D122F440724D6945EABD
:102DC800020C8A6942EA0C02426084614A684263E2
:102DD800036230BC704700BF0000014030B4036A92
:102DE80023F480730362036A4268C46924F0730C95
:102DF8000C6844EA0C0523F400738C6843EA042346
:102E0800114CA04203D004F58064A04206D123F4FB
:102E18000063CC6843EA042323F480630A4CA0428D
:102E280003D004F58064A04207D122F440524C69D3
:102E380042EA04128C6942EA04124260C5614A6897
:102E4800C263036230BC70470000014030B4036ABB
:102E580023F480530362036A4468C26922F4E64299
:102E68000D6842EA052223F400538D6843EA0533CE
:102E7800094DA84203D005F58065A84204D124F481
:102E880080444D6944EA85144460C2614A6802641A
:102E9800036230BC704700BF0000014010B4036AF1
:102EA800046A24F001040462846924F0F00C4CEAFA
:102EB800021223F00A030B438261036210BC7047BD
:102EC80010B4036A23F0100303628469036A24F4CC
:102ED800704C4CEA023223F0A00343EA01138261EA
:102EE800036210BC7047836823F070030B4343F000
:102EF800070383607047000090F83D30DBB2012B78
:102F080037D1022380F83D300268D36843F00103CB
:102F1800D3600368194A934220D0B3F1804F1DD083
:102F2800A2F57C42934219D002F58062934215D0F3
:102F380002F58062934211D002F5784293420DD097
:102F480002F57052934209D0A2F59432934205D00B
:102F58001A6842F001021A60002070479A6802F06D
:102F68000702062A07D01A6842F001021A600020F8
:102F78007047012070470020704700BF00000140E3
:102F880070477047704770477047704710B50446E0
:102F980003681A6912F0020F11D0DA6812F0020FF2
:102FA8000DD06FF002021A610123037703689B6951
:102FB80013F0030F70D0FFF7E6FF00232377236891
:102FC8001A6912F0040F12D0DA6812F0040F0ED04A
:102FD8006FF004021A610223237723689B6913F4B4
:102FE800407F5FD02046FFF7CEFF0023237723687A
:102FF8001A6912F0080F12D0DA6812F0080F0ED012
:103008006FF008021A61042323772368DB6913F041
:10301800030F4ED02046FFF7B6FF0023237723681F
:103028001A6912F0100F12D0DA6812F0100F0ED0D1
:103038006FF010021A61082323772368DB6913F401
:10304800407F3DD02046FFF79EFF0023237723686B
:103058001A6912F0010F03D0DA6812F0010F36D1A5
:1030680023681A6912F0800F03D0DA6812F0800F13
:1030780034D123681A6912F0400F03D0DA6812F0CD
:10308800400F32D123681A6912F0200F03D0DA6892
:1030980012F0200F30D110BDFFF774FF2046FFF764
:1030A80073FF8AE72046FFF76DFF2046FFF76CFFA6
:1030B8009BE72046FFF766FF2046FFF765FFACE772
:1030C8002046FFF75FFF2046FFF75EFFBDE76FF082
:1030D80001021A612046FFF754FFC1E76FF0800232
:1030E8001A61204600F0F9FAC3E76FF040021A614E
:1030F8002046FFF74AFFC5E76FF020021A61204615
:1031080000F0EAFAC7E700000368304A904212D09C
:10311800B0F1804F0FD0A2F57C4290420BD002F55F
:103128008062904207D002F58062904203D002F597
:103138007842904203D123F070034A681343234A2C
:1031480090422AD0B0F1804F27D0A2F57C4290421D
:1031580023D002F5806290421FD002F5806290422F
:103168001BD002F57842904217D002F57052904277
:1031780013D002F5806290420FD002F5806290422F
:103188000BD0A2F59832904207D002F580629042A7
:1031980003D002F58062904203D123F44073CA68D9
:1031A800134323F080034A69134303608B68C362A7
:1031B8000B688362054B984203D003F580639842FD
:1031C80001D10B690363012343617047000001408B
:1031D80040B310B5044690F83D30F3B1022384F8AB
:1031E8003D30214651F8040BFFF78EFF012384F888
:1031F800463084F83E3084F83F3084F8403084F814
:10320800413084F8423084F8433084F8443084F8FC
:10321800453084F83D30002010BD80F83C30FDF783
:1032280071FEDBE70120704740B310B5044690F803
:103238003D30F3B1022384F83D30214651F8040BA8
:10324800FFF762FF012384F8463084F83E3084F8A3
:103258003F3084F8403084F8413084F8423084F8B4
:10326800433084F8443084F8453084F83D300020F9
:1032780010BD80F83C30FFF783FEDBE70120704784
:1032880030B4036A23F010030362036A4468826956
:1032980022F4E6420D6842EA052223F020038D68F5
:1032A80043EA0513114DA84203D005F58065A842ED
:1032B80006D123F08003CD6843EA051323F04003C9
:1032C8000A4DA84203D005F58065A84207D124F429
:1032D80040644D6944EA85048D6944EA8504446084
:1032E80082614A688263036230BC70470000014013
:1032F80038B590F83C30012B66D004460D460123C2
:1033080080F83C300C2A5AD8DFE802F0075959599E
:103318001B5959593059595944000068FFF726FD7F
:103328002268936943F0080393612268936923F044
:10333800040393612268936929690B439361002010
:103348003EE00068FFF79CFF2268936943F400633E
:1033580093612268936923F4806393612268936977
:10336800296943EA01239361002029E00068FFF7F7
:1033780035FD2268D36943F00803D3612268D36915
:1033880023F00403D3612268D36929690B43D3610D
:10339800002015E00068FFF759FD2268D36943F45F
:1033A8000063D3612268D36923F48063D361226800
:1033B800D369296943EA0123D361002000E0012091
:1033C800002384F83C3038BD0220FCE710B4846840
:1033D80024F47F4C42EA03220A4342EA0C02826048
:1033E80010BC704790F83C30012B78D010B50446DB
:1033F800012380F83C30022380F83D30026893684E
:1034080023F47F4323F0770393600B68602B4CD041
:1034180029D8402B54D00CD9502B22D1CA684968DE
:103428000068FFF73BFD50212068FFF75CFD002096
:1034380005E0202B0DD009D9302B0AD0012001231B
:1034480084F83D30002384F83C3010BD0BB1102BBC
:1034580005D119462068FFF746FD0020EFE7012057
:10346800EDE70120EBE7B3F5805F34D0B3F5005FFB
:103478000CD1CB684A6889680068FFF7A7FF226803
:10348800936843F4804393600020D8E7702B24D1DD
:10349800CB684A6889680068FFF798FF22689368D4
:1034A80043F0770393600020C9E7CA684968006859
:1034B800FFF706FD60212068FFF715FD0020BEE735
:1034C800CA6849680068FFF7E9FC40212068FFF7EF
:1034D8000AFD0020B3E70020B1E70120AFE7022092
:1034E800704701F01F014FF0010C0CFA01FC036A50
:1034F80023EA0C030362036A8A401343036270479A
:1035080010B504460846C1B994F83E30DBB2013B19
:1035180018BF0123002B40F0918038BB022384F8A8
:103528003E300C2800F28C80DFE800F0308A8A8A6E
:103538006B8A8A8A718A8A8A7700042908D00829BE
:103548000DD094F84130DBB2013B18BF0123E1E70D
:1035580094F83F30DBB2013B18BF0123DAE794F857
:103568004030DBB2013B18BF0123D3E7042805D064
:10357800082807D0022384F84130D2E7022384F8D0
:103588003F30CEE7022384F84030CAE72268D36888
:1035980043F00203D360012201462068FFF7A1FF30
:1035A8002368294A934203D002F58062934203D1EB
:1035B8005A6C42F400425A642368234A934232D038
:1035C800B3F1804F2FD0A2F57C4293422BD002F565
:1035D8008062934227D002F58062934223D002F59D
:1035E800784293421FD002F5705293421BD0A2F545
:1035F8009432934217D01A6842F001021A600020F0
:103608001FE02268D36843F00403D360C3E722684D
:10361800D36843F00803D360BDE72268D36843F05A
:103628001003D360B7E79A6802F00702062A09D0A8
:103638001A6842F001021A60002002E0012000E04E
:10364800012010BD0020FCE70000014090F83C205C
:10365800012A3CD010B40346012280F83C20022203
:1036680080F83D2002685068946820F0700C086863
:1036780040EA0C0050601A68164882421AD0B2F12B
:10368800804F17D0A0F57C40824213D000F58060AF
:1036980082420FD000F5806082420BD000F578405E
:1036A800824207D000F57050824203D0A0F59430D2
:1036B800824204D124F080044968214391600122A8
:1036C80083F83D20002083F83C0010BC704702209E
:1036D800704700BF0000014070477047026802F160
:1036E8000C0353E8003F23F490730C3242E8003196
:1036F8000029F3D1026802F1140353E8003F23F0D4
:103708000103143242E800310029F3D1036B012B85
:1037180005D0202380F83E300023036370470268F9
:1037280002F10C0353E8003F23F010030C3242E887
:1037380000310029F3D1ECE790F83D30DBB2212BC2
:1037480001D0022070478368B3F5805F17D0036A01
:103758005A1C02621A7803685A60C38C9BB2013BF8
:103768009BB2C3844BB90268D36823F08003D3604B
:103778000268D36843F04003D360002070470369B0
:10378800002BE4D1036A1B880268C3F30803536063
:10379800036A02330362E0E710B50446026813695E
:1037A80023F44053C1680B431361836802691A43C9
:1037B80043691A43C3691A430168CB6823F4164363
:1037C80023F00C031343CB600268536923F440735E
:1037D80081690B4353610368314A934206D002F56D
:1037E8008062934202D0FFF7ADF901E0FFF7BAF922
:1037F800E369B3F5004F29D00021031849411B188C
:1038080041F10001C90041EA5371DB0018186368EF
:103818004FEA83024FEA937341F10001FCF7D0FCB1
:10382800204AA2FB00314909642303FB11031B0151
:103838003233A2FB03235B0903F0F00202EB01120F
:1038480003F00F03216813448B6010BD0023021896
:1038580043EB0301121841F10001C90041EA52711A
:10386800D200101841F10001626892185B41FCF720
:10387800A7FC0C4AA2FB00314909642303FB11038E
:10388800DB003233A2FB03235B095A0002F4F8720F
:1038980002EB011203F00703216813448B60D4E79D
:1038A800001001401F85EB5158B310B5044690F83D
:1038B8003D300BB3242384F83D302268D36823F4C9
:1038C8000053D3602046FFF767FF2268136923F48B
:1038D800904313612268536923F02A0353612268D5
:1038E800D36843F40053D36000202064202384F875
:1038F8003D3084F83E3010BD80F83C30FDF792FC36
:10390800D8E701207047704708B50168CA6822F0F7
:103918004002CA60202280F83D20FFF7F4FF002013
:1039280008BD704708B5806B0023C385C384FFF7C3
:10393800F8FF08BD90F83E30DBB2222B67D18368D0
:10394800B3F5805F4DD0826AB3F5805F04D0002B59
:1039580054D10369002B51D103685B681370836AE3
:1039680001338362C38D9BB2013B9BB2C385002B9D
:103978004FD100B583B00268D36823F02003D36029
:103988000268D36823F48073D3600268536923F014
:1039980001035361202380F83E30036B012B33D1A0
:1039A80000230363026802F10C0353E8003F23F08D
:1039B80010030C3242E800310029F3D103681A6879
:1039C80012F0100F06D0002201921A6801925B686B
:1039D8000193019B818D00F0EFF9002003B05DF8A1
:1039E80004FB0269002AAED1826A03685B68C3F3EC
:1039F80008031380836A02338362B3E703685B6852
:103A080003F07F031370AAE700F020FAE5E702202D
:103A1800704700207047000030B583B00446026844
:103A28001368D068516913F00F0505D113F0200F02
:103A380002D010F0200F19D12DB111F0010119D1C8
:103A480010F4907F16D1216B01297DD013F0800FDF
:103A580003D010F0800F40F0158113F0400F03D011
:103A680010F0400F40F0128103B030BD2046FFF740
:103A780061FFF9E713F0010F06D010F4807F03D03F
:103A8800226C42F00102226413F0040F04D019B131
:103A9800226C42F00202226413F0020F04D019B122
:103AA800226C42F00402226413F0080F07D010F0D1
:103AB800200F00D119B1226C42F008022264226C56
:103AC800002AD1D013F0200F02D010F0200F29D1F6
:103AD80023685B6903F04003226C12F0080F00D1E1
:103AE80063B32046FFF7FAFD23685B6913F0400FC4
:103AF80020D0226802F1140353E8003F23F040036A
:103B0800143242E800310029F3D1A36B73B1614A42
:103B18001A65A06BFEF7E2FA0028A5D0A06B036D2A
:103B28009847A1E72046FFF705FFD1E72046FFF7B2
:103B3800F8FE99E72046FFF7F4FE95E72046FFF7E1
:103B4800F0FE002323648FE713F0100F3FF47EAFDD
:103B580010F0100F3FF47AAF00230193136801931C
:103B680053680193019B536913F0400F50D0A26B27
:103B780013685B689BB2002B3FF476AFA18D994226
:103B88007FF672AFE385D369B3F5807F37D02268BB
:103B980002F10C0353E8003F23F480730C3242E82F
:103BA80000310029F3D1226802F1140353E8003FE1
:103BB80023F00103143242E800310029F3D12268CE
:103BC80002F1140353E8003F23F04003143242E8A3
:103BD80000310029F3D1202384F83E3000232363E9
:103BE800226802F10C0353E8003F23F010030C3263
:103BF80042E800310029F3D1A06BFEF725FAA18D28
:103C0800E38D9BB2C91A89B2204600F0D5F82BE79C
:103C1800A18DE38D9BB2C91A89B2E38D9BB2002BAB
:103C28003FF422AF00293FF41FAF226802F10C03D2
:103C380053E8003F23F490730C3242E80030002828
:103C4800F3D1226802F1140353E8003F23F0010383
:103C5800143242E800300028F3D1202384F83E30A3
:103C680000232363226802F10C0353E8003F23F08A
:103C780010030C3242E800300028F3D1204600F04F
:103C88009BF8F1E62046FFF757FDEDE62046FFF7E3
:103C98003BFEE9E62D39000881628285C285002352
:103CA8000364222280F83E2080F83C30036923B167
:103CB8000268D36843F48073D3600268536943F0A1
:103CC800010353610268D36843F02003D3600020E6
:103CD800704708B590F83E30DBB2202B0DD171B19A
:103CE8007AB190F83C30012B0DD0012380F83C309C
:103CF80000230363FFF7D0FF00E0022008BD012086
:103D0800FCE70120FAE70220F8E790F83E30DBB242
:103D1800202B29D110B582B0044639B342B390F8AC
:103D28003C30012B27D0012380F83C300363FFF798
:103D3800B3FFF0B9236B012B01D0012019E0002358
:103D4800019323681A6801925B680193019B2268BA
:103D580002F10C0353E8003F43F010030C3242E831
:103D680000310029F3D104E002207047012000E06F
:103D7800012002B010BD0220FBE70000037A1BB946
:103D88000C4B0F229A637047012B07D0022B09D0E6
:103D9800032B0BD0074B00229A637047054B19225F
:103DA8009A637047034B23229A637047014B2D2275
:103DB8009A637047000C0040224B0F22DA630268B6
:103DC800214B1B689A4200D0704700B589B00A465B
:103DD80003A9FFF79AFF9DF80C309DF80D2043EAE0
:103DE8000223C3F30A03ADF800309DF80E30D20861
:103DF80042EA4312C2F30A02ADF802209DF80F20EE
:103E08009B0943EA82039DF8102043EA8223C3F307
:103E18000A03ADF804309DF81130520842EAC31283
:103E2800C2F30A02ADF80620C3F301128DF8082088
:103E38009B098DF809306846FFF7A0FF09B05DF8C7
:103E480004FB00BF000C0040180500200268204B4E
:103E58001B689A4200D0704700B589B0122203A9A6
:103E6800FFF737FF9DF80C309DF80D2043EA022339
:103E7800C3F30A03ADF800309DF80E30D20842EAC9
:103E88004312C2F30A02ADF802209DF80F209B09E5
:103E980043EA82039DF8102043EA8223C3F30A030E
:103EA800ADF804309DF81130520842EAC312C2F34B
:103EB8000A02ADF80620C3F301128DF808209B0909
:103EC8008DF809306846FFF759FF09B05DF804FB23
:103ED8001805002002440346934200D1704703F8B6
:103EE800011BF9E770B50D4D0D4C641BA41000269D
:103EF800A64209D10B4D0C4C00F07EF8641BA410AF
:103F08000026A64205D170BD55F8043B98470136F6
:103F1800EEE755F8043B98470136F2E740400008C1
:103F2800404000084040000848400008704770477B
:103F3800024B13B1024800F005B8704700000000BA
:103F4800593F0008002301461A46184600F014B8E5
:103F580038B5074D074C641BA4101CB9BDE83840A0
:103F680000F050B8013C55F824309847F5E700BFF9
:103F7800484000084C4000082DE9F047DFF86CA0E5
:103F88000646DAF8000098460F469146FFF7CEFF3E
:103F9800174B1C680CB9174C1C606568DAF80000F0
:103FA8001F2D05DDFFF7C3FF4FF0FF30BDE8F08799
:103FB8009EB104EB85010122C1F88890D4F88831BC
:103FC800AA401343C4F88831022EC1F8088102BF01
:103FD800D4F88C311343C4F88C316B1C0235636000
:103FE80044F82570FFF7A3FF0020DFE70C0000204E
:103FF800A8050020AC050020F8B500BFF8BC08BC37
:104008009E467047F8B500BFF8BC08BC9E4670478E
:104018000000000000000000010203040607080970
:104028000000000001020304000610160006101626
:08403800C0C1FF7F0100000080
:08404000393F0008AD01000842
:0440480089010008E2
:10404C000024F4000100000010000000A405002072
:04000005080014C912
:00000001FF
