:020000040800F2
:1000000000000220112A0008A5210008A7210008ED
:10001000A9210008AB210008AD2100080000000064
:10002000000000000000000000000000AF210008F8
:10003000B121000800000000B3210008B52100082C
:10004000612A0008612A0008612A0008612A000864
:10005000612A0008BD210008612A0008612A000801
:10006000612A0008612A0008612A0008612A000844
:10007000612A0008612A0008612A0008612A000834
:10008000612A0008612A0008C1210008612A0008CD
:10009000D1210008612A0008612A0008612A0008AD
:1000A000612A0008612A0008612A0008612A000804
:1000B000612A0008612A0008612A0008612A0008F4
:1000C000612A0008612A0008612A0008E12100086D
:1000D000612A0008F1210008612A000801220008B5
:1000E000612A0008612A0008612A0008612A0008C4
:1000F000612A0008612A0008612A0008612A0008B4
:10010000612A0008612A0008612A0008612A0008A3
:10011000612A0008612A0008112200082122000833
:100120003122000841220008512200086122000803
:10013000612A0008612A0008612A0008612A000873
:1001400071220008612A0008612A0008612A00085B
:10015000612A00088122000891220008A1220008DB
:10016000612A0008612A0008612A0008612A000843
:10017000612A0008612A0008612A000800000000C6
:08018000612A0008612A000851
:1001880010B5054C237833B9044B13B10448AFF3C9
:1001980000800123237010BD3801002000000000FA
:1001A800B85D000808B5034B1BB103490348AFF31A
:1001B800008008BD000000003C010020B85D000878
:1001C80080F0004002E000BF81F0004142001FBF04
:1001D8005FEA410392EA030F7FEA226C7FEA236C0D
:1001E8006AD04FEA1262D2EB1363C1BFD218414002
:1001F80048404140B8BF5B42192B88BF704710F098
:10020800004F40F4000020F07F4018BF404211F03A
:10021800004F41F4000121F07F4118BF494292EAA2
:10022800030F3FD0A2F1010241FA03FC10EB0C00CE
:10023800C3F1200301FA03F100F0004302D549425B
:1002480060EB4000B0F5000F13D3B0F1807F06D308
:1002580040084FEA310102F10102FE2A51D2B1F100
:10026800004F40EBC25008BF20F0010040EA0300F5
:100278007047490040EB0000013A28BFB0F5000F75
:10028800EDD2B0FA80FCACF1080CB2EB0C0200FA2B
:100298000CF0AABF00EBC25052421843BCBFD0407A
:1002A8001843704792F0000F81F4000106BF80F4F4
:1002B80000000132013BB5E74FEA41037FEA226CB7
:1002C80018BF7FEA236C21D092EA030F04D092F082
:1002D800000F08BF0846704790EA010F1CBF0020B6
:1002E800704712F07F4F04D1400028BF40F0004013
:1002F800704712F100723CBF00F50000704700F033
:10030800004343F0FE4040F4000070477FEA226259
:1003180016BF08467FEA23630146420206BF5FEA2A
:10032800412390EA010F40F4800070474FF000032A
:1003380004E000BF10F0004348BF40425FEA000CF1
:1003480008BF704743F0964301464FF000001CE099
:1003580050EA010208BF70474FF000030AE000BFEF
:1003680050EA010208BF704711F0004302D540422D
:1003780061EB41015FEA010C02BF8446014600209F
:1003880043F0B64308BFA3F18053A3F50003BCFABA
:100398008CF2083AA3EBC25310DB01FA02FC634467
:1003A80000FA02FCC2F12002BCF1004F20FA02F26E
:1003B80043EB020008BF20F00100704702F1200261
:1003C80001FA02FCC2F1200250EA4C0021FA02F2C2
:1003D80043EB020008BF20EADC7070474FF0FF0CC7
:1003E8001CEAD0521EBF1CEAD15392EA0C0F93EAC2
:1003F8000C0F6FD01A4480EA010C400218BF5FEA64
:1004080041211ED04FF0006343EA501043EA5111D6
:10041800A0FB01310CF00040B1F5000F3EBF4900D0
:1004280041EAD3715B0040EA010062F17F02FD2AD4
:100438001DD8B3F1004F40EBC25008BF20F00100B7
:10044800704790F0000F0CF0004C08BF49024CEACE
:10045800502040EA51207F3AC2BFD2F1FF0340EA60
:10046800C250704740F400004FF00003013A5DDCD1
:1004780012F1190FDCBF00F000407047C2F1000212
:10048800410021FA02F1C2F1200200FA02FC5FEAFF
:10049800310040F1000053EA4C0308BF20EADC7049
:1004A800704792F0000F00F0004C02BF400010F4BB
:1004B800000F013AF9D040EA0C0093F0000F01F068
:1004C800004C02BF490011F4000F013BF9D041EA8A
:1004D8000C018FE70CEAD15392EA0C0F18BF93EA8C
:1004E8000C0F0AD030F0004C18BF31F0004CD8D1B6
:1004F80080EA010000F00040704790F0000F17BF3D
:1005080090F0004F084691F0000F91F0004F14D082
:1005180092EA0C0F01D142020FD193EA0C0F03D1DA
:100528004B0218BF084608D180EA010000F00040DD
:1005380040F0FE4040F40000704740F0FE4040F4B8
:10054800400070474FF0FF0C1CEAD0521EBF1CEA57
:10055800D15392EA0C0F93EA0C0F69D0A2EB030275
:1005680080EA010C49024FEA402037D04FF080530F
:1005780043EA111143EA10130CF000408B4238BFD4
:100588005B0042F17D024FF4000C8B4224BF5B1AE2
:1005980040EA0C00B3EB510F24BFA3EB510340EA30
:1005A8005C00B3EB910F24BFA3EB910340EA9C00DE
:1005B800B3EBD10F24BFA3EBD10340EADC001B014E
:1005C80018BF5FEA1C1CE0D1FD2A3FF650AF8B42F2
:1005D80040EBC25008BF20F0010070470CF0004CFF
:1005E8004CEA50207F32C2BFD2F1FF0340EAC2502A
:1005F800704740F400004FF00003013A37E792F0EB
:10060800000F00F0004C02BF400010F4000F013A48
:10061800F9D040EA0C0093F0000F01F0004C02BF43
:10062800490011F4000F013BF9D041EA0C0195E7AC
:100638000CEAD15392EA0C0F08D142027FF47DAF45
:1006480093EA0C0F7FF470AF084676E793EA0C0F35
:1006580004D14B023FF44CAF08466EE730F0004C33
:1006680018BF31F0004CCAD130F000427FF45CAFC3
:1006780031F000437FF43CAF5FE700BF4FF0FF3C31
:1006880006E000BF4FF0010C02E000BF4FF0010C84
:100698004DF804CD4FEA40024FEA41037FEA226C4D
:1006A80018BF7FEA236C11D001B052EA530C18BF6F
:1006B80090EA010F58BFB2EB030088BFC81738BFD4
:1006C8006FEAE17018BF40F0010070477FEA226CC2
:1006D80002D15FEA402C05D17FEA236CE4D15FEABE
:1006E800412CE1D05DF8040B704700BF84460846F2
:1006F8006146FFE70FB5FFF7C9FF002848BF10F1B3
:10070800000F0FBD4DF808EDFFF7F4FF0CBF0120F7
:1007180000205DF808FB00BF4DF808EDFFF7EAFF81
:1007280034BF012000205DF808FB00BF4DF808ED3C
:10073800FFF7E0FF94BF012000205DF808FB00BF31
:100748004DF808EDFFF7D2FF94BF012000205DF8B7
:1007580008FB00BF4DF808EDFFF7C8FF34BF0120C4
:1007680000205DF808FB00BF42000ED2B2F1FE4F38
:100778000BD34FF09E03B3EB126209D44FEA002368
:1007880043F0004323FA02F070474FF0000070472F
:1007980012F1610F01D1420202D14FF0FF307047D0
:1007A8004FF00000704700BF53B94AB9002908BF8D
:1007B80000281CBF4FF0FF314FF0FF3001F0DEB8CA
:1007C800ADF1080C6DE904CE00F006F8DDF804E0A0
:1007D800DDE9022304B070472DE9F047089E0D4675
:1007E80004460F46002B4AD18A42944665D9B2FA8C
:1007F80082F343B102FA03FCC3F120029F4020FABE
:1008080002F217439C404FEA1C4E1FFA8CF5B7FBC7
:10081800FEF1220C0EFB117742EA074201FB05F0BC
:1008280090420AD91CEB020201F1FF3780F01B81CC
:10083800904240F2188102396244121AA4B2B2FB03
:10084800FEF00EFB102244EA024400FB05F5A54227
:100858000AD91CEB040400F1FF3280F00681A5429E
:1008680040F203816444023840EA0140641B0021DD
:100878001EB1DC400023C6E90043BDE8F0878B4287
:1008880008D9002E00F0EC800021C6E900050846D2
:10089800BDE8F087B3FA83F1002949D1AB4202D30E
:1008A800824200F2F780841A65EB030201201746A2
:1008B800002EE2D0C6E90047DFE702B9FFDEB2FA50
:1008C80082F3002B40F08F808A1A4FEA1C471FFAE8
:1008D8008CFE0121B2FBF7F507FB1520220C42EA3A
:1008E80000420EFB05F0904208D91CEB020205F10C
:1008F800FF3802D2904200F2CA804546121AA4B2CA
:10090800B2FBF7F007FB102244EA02440EFB00FE9C
:10091800A64508D91CEB040400F1FF3202D2A64513
:1009280000F2BA801046A4EB0E0440EA05409FE7A7
:10093800C1F120078B4022FA07FC4CEA030C05FAA8
:1009480001F420FA07F3FD40234300FA01F94FEAC6
:100958001C401FFA8CFEB5FBF0F81C0C00FB185568
:1009680044EA054408FB0EF5A54202FA01F20BD948
:100978001CEB040408F1FF3A80F08780A54240F29E
:100988008480A8F102086444641B9DB2B4FBF0F3B0
:1009980000FB134445EA044403FB0EFEA64508D9B0
:1009A8001CEB040403F1FF306BD2A64569D9023B66
:1009B800644443EA0840A0FB0283A4EB0E049C4273
:1009C800C6461D4655D352D056B1B9EB0E0364EB5B
:1009D800050404FA07F7CB40CC401F43C6E900746E
:1009E8000021BDE8F087C3F1200102FA03FC20FAD8
:1009F80001F225FA01F19D402A434FEA1C471FFAEC
:100A08008CFEB1FBF7F007FB1015110C41EA05410C
:100A180000FB0EF58D4204FA03F408D91CEB010122
:100A280000F1FF382FD28D422DD902386144491B7D
:100A380092B2B1FBF7F507FB151142EA014205FB3B
:100A48000EF1914208D91CEB020205F1FF3816D2CB
:100A5800914214D9023D6244521A45EA004139E7ED
:100A68003146304609E73946E7E61046FCE6C14517
:100A7800AAD2B8EB020E63EB0C050138A4E7454691
:100A8800EAE7034695E74046D1E7D0467CE7023DD2
:100A9800624433E708460BE76444023843E700BF83
:100AA80003685A004CBF43F0004323F00043184446
:100AB800704700BF2DE9F84329B34F1E0446154679
:100AC8003E464FF0000808EB060101EBD1714910D2
:100AD80004EBC1094846FFF7E3FF0346C8000830A6
:100AE8008F42204409D0AB4209D8FFF7D9FF01381B
:100AF800A8420AD201F10108E5E7AB4205D98845C9
:100B080001D04E1EDFE74FF000094846BDE8F883E4
:100B1800012807D0022807D0044B00280CBF18462C
:100B2800002070470248704702487047ED110008DE
:100B3800F1110008F511000830B5224B83B00446C6
:100B48008D1E43B301A92846AFF30080F0B1019987
:100B58002A46FFF7AFFF0146C0B1FFF7A1FF4B6878
:100B6800A064012B2BD0002B01F1040025DBFFF73B
:100B780097FF002323650368E064002B12DBFFF76F
:100B88008FFF03460020236103B030BD00230920F6
:100B9800236103B030BD0C4B0C49C91AC910184663
:100BA8000191D5E7C3F30360FFF7B2FF031E0CBF43
:100BB80009200020236103B030BD0123DAE70023B8
:100BC8000520E0E700000000385E0008685F0008C4
:100BD8000368DA0710B5044606D49B0700F14800FD
:100BE80009D500F071FC2368590709D51A070ED5F5
:100BF800DB0613D510BD00F05FFC23685907F5D458
:100C080004F1D00000F068FC23681A07F0D404F55A
:100C1800A87000F069FC2368DB06EBD404F5E870E3
:100C2800BDE8104000F0A4BC0920704703460068E6
:100C380000B11844704700BF704700BF70B5044644
:100C48000E46316C2046FFF777FF054688B9326CAF
:100C58006261236932462146012098470828F0D06E
:100C6800072806D12846316CFFF7E6FF301D00F053
:100C780017FC04F0ABFF00BF2DE9F0470D1DD0F8BD
:100C88000C80D0F81890074614460FCDADF5727D4C
:100C98000DF10C0CACE80F000FCDACE80F000FCD38
:100CA800ACE80F0095E80F0002AE4FF0000E8CE89C
:100CB8000F00C6F800E020E0336C7B614FF4F0725F
:100CC80031467AA805F002F83B697AAA39465046B7
:100CD8009847889B73642146CDE9006905463B46E1
:100CE8003A460120C0470446E0B94FF4F0727AA9A9
:100CF800304604F0EBFF082D1AD1316C3846FFF767
:100D08001BFF09345FFA84FA05460028D4D0B36B78
:100D180073643A46CDE900693B464AF01001012068
:100D2800C04700B1092528460DF5727DBDE8F0875A
:100D3800072DF7D12046316CFFF77EFF03A800F09E
:100D4800AFFB00BF406C7047F0B5CB6B0B6401F193
:100D5800040C0E460546BCE80F00F9B001AC0FC400
:100D6800BCE80F000FC4BCE80F000FC49CE80F00DC
:100D78004FF0FF3784E80F00009706E02B696A46BA
:100D8800294698470828044608D110992846FFF7AD
:100D9800D3FE0028F2D0092079B0F0BD6846FFF7ED
:100DA80017FF062CF7D131462846FFF747FF00BF4B
:100DB800C160D96B82611964002219465CE700BFE3
:100DC80070B5C66843690B64AEB903690A46044640
:100DD8000D46014602209847072805D008280FD15C
:100DE80029462046FFF72AFF3046296CFFF724FFE3
:100DF800281D00F055FB0122FFF73EFF04F0E6FE38
:100E080004F0E4FEC2681AB1CA6B0A64002233E730
:100E18009AE700BF704700BF836801460BB1012005
:100E280018477047012912D009D873B90F2A0CD86E
:100E380000EB820218465368009A13607047033922
:100E4800012994BF012002207047022070470846FC
:100E5800704700BF00B585B00A46002303A900917A
:100E68001946FFF7DFFF039805B05DF804FB00BFE4
:100E7800012912D009D873B90F2A0CD8009900EBB0
:100E8800820209685160184670470339012994BFE6
:100E9800012002207047022070470846704700BFB3
:100EA80010B584B0002303AC039200940A46194697
:100EB800FFF7DEFF04B010BD70B5D36B136402F109
:100EC800040C05460C46BCE80F00ADF50E7D0DF18F
:100ED8005C0EAEE80F00BCE80F00AEE80F00BCE8FF
:100EE8000F00AEE80F009CE80F004FF0FF368EE8C9
:100EF8000F00169610E0FFF7D3FF214616A8A84763
:100F0800034616AA6946082083B9049B9847052812
:100F180006460CD0092809D026996846FFF70CFE2A
:100F280003466A460C2116A8002BE4D0092616A809
:100F3800FFF74EFE30460DF50E7D70BD2DE9F04FE2
:100F4800CC6C89B01E4654F8043B06940D461746EF
:100F580000F00308002E79D01A0C8DF81D201B0410
:100F6800D2B2059304EB820402238DF81C302B6D5A
:100F7800B8F1020F08BFAC6B13F001030CD005A940
:100F8800384600F08FFB18B9082009B0BDE8F08F8B
:100F9800092009B0BDE8F08FD4F800A0BAF1000F1D
:100FA800EDD0019300F008030293022E4AD0B4F862
:100FB80000A0B4F802900434AB6C29F0010B0F21A7
:100FC80038469B44FFF746FF834539D82AF001028B
:100FD8005A44824294BF002201224FEA490303F097
:100FE80002030AF0010A43EA0A03012B4BD0022B41
:100FF80032D0002BCCD1B8F1000F02D0002A40F03B
:10100800CD800434D4F800A0BAF1000FCDD105A9E1
:10101800384600F047FB0028BAD1019B002BB3D01B
:101028000F213846FFF716FF0E2102463846FFF714
:1010380037FF38466A4A0F21FFF732FF0720A8E733
:101048000022CAE7D4F804900834B5E71B020593D8
:101058008DF81D60032388E7D4F8009029F0004B31
:10106800B8F1000F46D12AB1029B002B5BD0BBF12F
:10107800000F73D0B9F1000F00DA04340BF1010B43
:1010880004EB8B04BEE7B8F1000F19D1B2B1616867
:101098002268881C4FEAD2723FF47AAF05F15803F0
:1010A8000131049300F08E80201DFFF7BFFD04ABD3
:1010B80001462846AFF30080002859D10834A1E73B
:1010C8000D213846D5F82090FFF7C4FE8145F5D1AB
:1010D800AB6A9C42F2D12046FFF7E2FC0F210246A0
:1010E8003846FFF7DDFE38462A460021FFF7D8FECE
:1010F80007204EE70D213846D5F820A0FFF7AAFEB5
:101108008245B7D1AB6A9C42B4D104230022C5E919
:101118000B23E318C5F828B06B632368002B59DB51
:1011280001230193AAE7994605F15803CDF80C80ED
:1011380004F1040AB0461E460EE050460496FFF736
:1011480075FD0022014604AB284609F101090AF1A0
:10115800040AAFF30080D8B9D945EED10D2138463D
:10116800FFF778FE049B2862C5E90934062010E7DA
:1011780081460D213846FFF76DFEB9F1020F04BF15
:101188002B46049A286214BF049B43F82C2FEBE7E4
:101198004646D4F80090DDF80C806BE72046FFF750
:1011A8007FFC04340246AC6328461446AFF3008043
:1011B80000283FF4EDAE384622460F21FFF770FEB7
:1011C8000720E6E60D2138460193FFF743FE019B11
:1011D8002862C9E70BF1010004EB80007CE700BF3F
:1011E800000000000023A9E60123A7E60223A5E6E4
:1011F8002DE9F0430646C3B091461C46042900F287
:101208009B80DFE801F07B56992E0300002C40F00C
:101218009380102A00F290800368DC0600F1F380C6
:1012280020AF384600F0AEF9B46B394600234FF0D2
:10123800010C0CFA03F212EA090F204603F101032C
:1012480003D050F8042B0A600446042B01F1040172
:10125800EFD13846B46300F08BF9002043B0BDE805
:10126800F083032C68D194B204EB1243102B4FEA9D
:10127800124961D803681D0700F1CD8020AF3846B8
:1012880000F054F9B26B07EBC90154B10B46D01A00
:1012980001EBC401E4001D5843F8045B8B42FAD10A
:1012A80022443846B26300F01FF9002043B0BDE87D
:1012B800F083012C4FEA12481FFA82F938D0052C26
:1012C8003AD108EB0903202B36D8B8F10F0F76D99D
:1012D800B9F1000F40F083800F2B0BD83368D80783
:1012E80008D5304623F0010343F0020340F8483B99
:1012F80000F0EEF8002043B0BDE8F083E4B9876B56
:1013080023461FFA82FC0120341D00FA03F212EA78
:101318000C0F394604D051F8042B44F823200F460B
:101328000133102BF1D119F40050E3D1B76304E075
:1013380008EB0903102B03D9022043B0BDE8F08362
:10134800B8F10F0FF8D83368DA0706D5304623F01E
:10135800030340F8483B00F0B3F820AF38464D4649
:1013680000F0AEF8B26B002D5ED04FF0000907EB2D
:10137800C80102EBC503043952F8040B41F8040F05
:101388009A42F9D1B9F1000F54D06F46414610295D
:1013980038BF102107EBC101843903EBC90253F8A8
:1013A800045B41F8045F9A42F9D1012C3BD0B8F1B3
:1013B8000F0FB26358D9384600F08EF89AE7102B11
:1013C80054D93268D707A3F1100909D522F00103CF
:1013D800304643F0020340F8483B00F079F83268A1
:1013E800530739D4B8F10F0F02D820A800F070F8CD
:1013F8006F463846C8F1100500F072F8002DB26B40
:1014080028DD20AFB3E723F01003036000F5E87090
:1014180000F0B8F804E723F00803036000F5A870AB
:1014280000F084F82AE720AF0432B263384600F0AF
:1014380043F85FE7012CF7D0B8F10F0FB2633FF61E
:1014480059AF384600F040F8B9F1000F3FF452AFF9
:101458006F46B0E7134699E7304622F0040240F899
:10146800D02B00F03DF8BDE720AFEAE73368D90795
:1014780008D523F00103304643F0020340F8483B07
:1014880000F026F820AF38464D4600F021F8B26B40
:10149800002D7FF46AAF384600F016F82AE700BF3F
:1014A80000F1340191E838009C46A6464CF8045DEA
:1014B80090E8FF0FE54600BD90EC210B704700BF98
:1014C80080EC210B704700BF90EC200B704700BFE9
:1014D80080EC200B704700BFD0EC200B704700BF9A
:1014E800C0EC200B704700BFF0EC0201F0EC0211D9
:1014F800F0EC0221F0EC0231F0EC0241F0EC025188
:10150800F0EC0261F0EC0271F0EC0281F0EC029177
:10151800F0EC02A1F0EC02B1F0EC02C1F0EC02D167
:10152800F0EC02E1F0EC02F1704700BFE0EC0201E0
:10153800E0EC0211E0EC0221E0EC0231E0EC0241C7
:10154800E0EC0251E0EC0261E0EC0271E0EC0281B7
:10155800E0EC0291E0EC02A1E0EC02B1E0EC02C1A7
:10156800E0EC02D1E0EC02E1E0EC02F1704700BFF0
:10157800B0FC0181B0FC0191B0FC01A1B0FC01B14B
:10158800704700BFA0FC0181A0FC0191A0FC01A153
:10159800A0FC01B1704700BFEC4600B52DE9005032
:1015A8002DE9FF1F4FF000032DE90C0001A9FFF7FB
:1015B800CBFBDDF840E012B0704700BFEC4600B549
:1015C8002DE900502DE9FF1F4FF000032DE90C0015
:1015D80001A9FFF7F5FBDDF840E012B0704700BF46
:1015E800EC4600B52DE900502DE9FF1F4FF0000330
:1015F8002DE90C0001A9FFF705FCDDF840E012B069
:10160800704700BFEC4600B52DE900502DE9FF1FDB
:101618004FF000032DE90C0001ABFFF7C9FBDDF823
:1016280040E012B0704700BFEC4600B52DE900500D
:101638002DE9FF1F4FF000032DE90C0001AAFFF769
:101648003BFCDDF840E012B0704700BF027A034669
:101658007AB9427AA2B14168013A10B44272086874
:1016680003220C1D1A7202025C60000E10BC1A6084
:1016780070470068013A1A7202021A60000E704739
:10168800B020704700B585B0002303AA0092194620
:101698000C22FFF7C7FB039805B05DF804FB00BFF9
:1016A800F0E700BF2DE9F04385B007460E464FF03E
:1016B800000803AD3046FFF7C9FFB028044600F024
:1016C800CB80030640D500F0F003802B56D0B02B1A
:1016D8007DD01CD8902B00F09380A02B13D1C3434E
:1016E80003F007034FF47F621A41010702F47F6297
:1016F8004FF0000348BF42F4804219463846FFF7CE
:1017080077FD0028D6D0092005B0BDE8F083C02BAE
:101718004BD1C62800F08980C72800F0A28000F0CD
:10172800F803C02B00F0BC80C82800F0BF80C9288F
:10173800E9D13046FFF78AFF020300F00F0002F4F8
:1017480070220130024339E08300DBB203F104095F
:101758000023194600950D223846FFF763FB039BCB
:1017680060064CBFA3EB09034B4403930023009589
:101778000D2219463846FFF77BFB9BE704023046EB
:10178800FFF764FF2043B0F5004FBCD004010023ED
:10179800A2B219463846FFF72BFD0028B3D114F43E
:1017A800004F18BF4FF0010884E700F0F803D02B72
:1017B800A9D100F00702013242F4002205230121D9
:1017C8003846FFF715FD00283FF474AF9BE7B128B2
:1017D80037D0B22800F08780B32856D000F0FC0339
:1017E800B42B90D000F00702013242F4002201230A
:1017F80019463846FFF7FCFC00283FF45BAF82E748
:1018080000F00D030D2B3FF47EAF002300F00F0214
:10181800194600953846FFF705FB002300950D2271
:1018280019463846FFF724FB44E73046FFF70EFF1A
:10183800020300F00F0002F4702201300243032378
:10184800D6E73046FFF702FF024600283FF45BAFB9
:1018580010F0F003CCD056E7B8F1000F32D00020DA
:1018680052E73046FFF7F2FE024600283FF44BAF3E
:1018780010F0F00F7FF447AF002304213846FFF73C
:10188800B7FC00283FF416AF3DE73046FFF7DEFE11
:10189800020300F00F0002F4702201300243A6E7B1
:1018A80000F00F02013242F42022C8E73046FFF769
:1018B800CDFE00F0F00200F00F031032013343EACE
:1018C80002327BE703AC43460E2241460094384679
:1018D800FFF7A8FA009443460F2241463846FFF71F
:1018E800C7FA404610E700230D22194600953846EE
:1018F800FFF798FA3046FFF7A9FE0206039C4FF05F
:1019080002090CD500F07F0000FA09F004443046C3
:101918000394FFF79BFE030609F10709F2D400F0D0
:101928007F0303FA09F304F5017423441DE700BF9C
:1019380010B5C26C536884B04FF0030C08321C0217
:1019480008461B0E01A9019402928DF80CC08DF86F
:101958000D30FFF7A7FE04B010BD00BF08B5FFF7B4
:101968009FFE806C08BD00BF08B5FFF799FEC06CEC
:10197800C379023300EB830008BD00BF704700BF86
:1019880000B585B000230093019302930393174891
:10199800174A02604FF48032426083600361037625
:1019A80080F820304FF08052C2624FF000628262AD
:1019B800C3600122C26180F83030426101F03AF917
:1019C80068B908230093012301930223029369460F
:1019D800064801F0FFF928B905B05DF804FB00F0EE
:1019E8005BFAEEE700F058FAF6E700BF5401002072
:1019F8000022014010B588B0002303930493059397
:101A0800069307930268174B9A4201D008B010BD9D
:101A18000024019403F58B335A6C42F480625A64B3
:101A28005A6C02F480620192019A02941A6B42F095
:101A380020021A631B6B03F020030293029B4FF4EE
:101A4800806303930323049303A9074802F0F2F881
:101A580022462146122001F079FE122001F0AEFE46
:101A6800D4E700BF002201400014024008B50E4828
:101A78000E4B03600323436000238360C3604FF46D
:101A8800102202614FF4001242610376012242766D
:101A98008376C3760377437701F067FA00B908BD08
:101AA80000F0FAF9FBE700BFA00100200064004045
:101AB80008B50E480E4B0360032343600023836080
:101AC800C3604FF4102202614FF4001242610376A2
:101AD800012242768376C3760377437701F045FA8D
:101AE80000B908BD00F0D8F9FBE700BFC801002025
:101AF8000068004010B58AB0002305930693079349
:101B08000893099303683E4A934204D03D4A93429E
:101B180035D00AB010BD3C4A136801331360012B5D
:101B280020D000240194394B1A6B42F008021A6342
:101B38001B6B03F008030193019B03230593022207
:101B48000692079208930923099305A9304802F0E1
:101B580071F822462146142001F0F8FD142001F006
:101B68002DFED6E700230093284B1A6C42F0007232
:101B78001A641B6C03F000730093009BD1E70023E9
:101B88000293224B1A6C42F080621A641B6C03F0B9
:101B980080630293029B1C4A136801331360012B74
:101BA80021D000240494194B1A6B42F002021A63E4
:101BB8001B6B03F002030493049B60230593022329
:101BC80006930793032308930923099305A911484A
:101BD80002F030F822462146402001F0B7FD4020AF
:101BE80001F0ECFD95E700230393084B1A6C42F0D3
:101BF80000721A641B6C03F000730393039BD0E715
:101C080000640040006800409C0100200038024049
:101C1800000C02400004024010B582B00024019478
:101C28001D4B1A6B42F480021A631B6B03F480038A
:101C38000193019B22462146382001F087FD382078
:101C480001F0BCFD22462146392001F07FFD3920F4
:101C580001F0B4FD224621463A2001F077FD3A20F2
:101C680001F0ACFD224621463B2001F06FFD3B20F0
:101C780001F0A4FD22462146452001F067FD4520DC
:101C880001F09CFD22462146462001F05FFD4620DA
:101C980001F094FD02B010BD003802402DE9F0417A
:101CA8008EB0002409940A940B940C940D9400941B
:101CB800514B1A6B42F002021A631A6B02F00202CD
:101CC8000092009A01941A6B42F040021A631A6B50
:101CD80002F040020192019A02941A6B42F001024A
:101CE8001A631A6B02F001020292029A03941A6BA9
:101CF80042F008021A631A6B02F008020392039A70
:101D080004941A6B42F004021A631A6B02F004027C
:101D18000492049A05941A6B42F480721A631A6B3F
:101D280002F480720592059A06941A6B42F08002BA
:101D38001A631A6B02F080020692069A07941A6BCD
:101D480042F020021A631A6B02F020020792079AE7
:101D580008941A6B42F010021A631B6B03F010030D
:101D68000893089B254F22461021384602F05CF85C
:101D7800DFF88C8022460121404602F055F8C02346
:101D8800099302260A960B960C9403250D9509A92A
:101D98001C4801F04FFF402309930A960B960C94B8
:101DA8000D9509A9184801F045FF012509950A94E0
:101DB8000B9509A9384601F03DFF102309930A95B0
:101DC8000B950C9409A9384601F034FF4FF4D4431D
:101DD80009930A960B960C940D9509A90B4801F0E6
:101DE80029FF09950A950B950C9409A9404601F01D
:101DF80021FF0EB0BDE8F08100380240000002402B
:101E08000004024000200240000802400010024086
:101E180008B50748074B03600323436040F2DC53CF
:101E2800836002F007F800B908BD00F035F8FBE759
:101E3800F00100200030004000B589B00291002177
:101E4800039104910591069301AB02A901F000FAF0
:101E580009B05DF804FB000010B58AB001220892B1
:101E6800002306930792009301930293039304932C
:101E78000E2209920593074C6946204601F01CF989
:101E8800204601F0B7F90221204601F00AFB0AB00A
:101E980010BD00BFA001002072B6FEE700B595B0E6
:101EA8003022002108A803F098FE0023039304932E
:101EB8000593069307930193214A116C41F08051D1
:101EC8001164126C02F080520192019A02931D4B28
:101ED8001A6842F480421A601B6803F48043029334
:101EE800029B092308934FF48033099301230D9330
:101EF80002230E934FF480020F9206221092A8221A
:101F0800119212930723139308A801F0C5FF98B9FB
:101F18000F23039302230493002305934FF4A05344
:101F280006934FF480530793052103A802F004FA9F
:101F380020B915B05DF804FBFFF7AEFFFFF7ACFF63
:101F4800003802400070004008B500F0ADFDFFF712
:101F5800A5FFFFF7A3FEFFF75FFEFFF711FDFFF7F1
:101F680085FDFFF7A5FDFFF753FF00F033F800F0FC
:101F7800ADF900F0E3F900F03BFB00F017FA00F0D0
:101F88003DFA00F09FFB00F0D7FB00F0B7FB1222F0
:101F98000C490D4803F04BFB0C4C204602F05CFC4E
:101FA8000B4802F059FC0021204602F057FF04219B
:101FB800204602F053FF0821204602F04FFFFFF7AA
:101FC8004BFFFEE7FC01002054060020B803002068
:101FD8000004002008B50F480F4B03604FF48273CC
:101FE800436000238360C3600222026101224261D0
:101FF8004FF4007282611822C261036243628362F5
:102008000A23C36202F06EFA00B908BDFFF744FF65
:10201800FBE700BFD0020020003001402DE9F0436B
:1020280089B00023039304930593069307930268EA
:10203800414B9A4202D009B0BDE8F083044600251E
:10204800009503F584335A6C42F480525A645A6CF2
:1020580002F480520092009A01951A6B42F0020233
:102068001A631A6B02F002020192019A02951A6B26
:1020780042F001021A631B6B03F001030293029BF7
:10208800182303934FF00209CDF810904FF0010880
:10209800CDF81480032706970526079603A9274835
:1020A80001F0C8FD80230393CDF81090CDF814807B
:1020B8000697079603A9224801F0BCFD2148224B48
:1020C80003604FF0C06343608560C5604FF4806370
:1020D800036145618561C5610562456201F0F8FBF0
:1020E80018BB184BE3649C631848194B03604FF006
:1020F800C0634360402383600023C3604FF4806261
:10210800026143618361C3610362436201F0E0FBE2
:1021180070B90E4BA3649C6300221146232001F082
:1021280015FB232001F04AFB85E7FFF7B5FED8E74A
:10213800FFF7B2FEEDE700BF0030014000040240A7
:1021480000000240100200201064024070020020CB
:102158005864024000B583B0002100910E4B5A6CC0
:1021680042F480425A645A6C02F480420092009A07
:1021780001911A6C42F080521A641B6C03F0805370
:102188000193019B0A46052001F0E0FA052001F0C1
:1021980015FB03B05DF804FB00380240FEE7FEE7DC
:1021A800FEE7FEE7FEE770477047704708B500F0A6
:1021B80095FC08BD7047000008B5024800F068FDAE
:1021C80008BD00BF5401002008B5024801F087F996
:1021D80008BD00BFA001002008B5024802F0E2F9DE
:1021E80008BD00BFD002002008B5024803F0C2F8BD
:1021F80008BD00BF1006002008B5024803F0BAF871
:1022080008BD00BF5406002008B5024802F06DFB67
:1022180008BD00BF0004002008B5024802F065FBB5
:1022280008BD00BF4804002008B5024801F014FCAE
:1022380008BD00BF1002002008B5024801F00CFCE0
:1022480008BD00BF5005002008B5024801F004FC95
:1022580008BD00BF9004002008B5024801F0FCFB4F
:1022680008BD00BF7002002008B5024801F037F928
:1022780008BD00BFC801002008B5024801F0ECFB0A
:1022880008BD00BFB005002008B5024801F0E4FB16
:1022980008BD00BFF004002008B5024803F06AF842
:1022A80008BD00BF980600200120704708B503F05C
:1022B800E1FC162303604FF0FF3008BD08B54FF06E
:1022C800FF31FFF7F3FFFEE77047000000B587B066
:1022D80000230293039304930593009301931548F5
:1022E800154A0260436083604FF6FF72C260036163
:1022F800836102F01BFC98B94FF48053029302A942
:102308000C4802F01DFD70B92023009300230193AF
:102318006946084802F048FE40B907B05DF804FB7A
:10232800FFF7BAFDE8E7FFF7B7FDEDE7FFF7B4FD04
:10233800F3E700BF280300200004004000B587B081
:102348000023029303930493059300930193154884
:10235800154A0260532242608360C722C26003614B
:102368008023836102F0E2FB90B94FF4805302931B
:1023780002A90C4802F0E4FC68B900230093019319
:102388006946084802F010FE40B907B05DF804FB42
:10239800FFF782FDE9E7FFF77FFDEEE7FFF77CFD3A
:1023A800F3E700BF700300200008004000B583B0C9
:1023B8000023009301930F480F4A026053224260A2
:1023C800836040F2E732C260836102F0AFFB50B92C
:1023D8000023009301936946064802F0E5FD28B9F9
:1023E80003B05DF804FBFFF757FDF1E7FFF754FD75
:1023F800F6E700BF000400200010004000B583B0DD
:102408000023009301930F480F4A02605322426051
:10241800836040F2E732C260836102F087FB50B903
:102428000023009301936946064802F0BDFD28B9D0
:1024380003B05DF804FBFFF72FFDF1E7FFF72CFD74
:10244800F6E700BF480400200014004000B58DB036
:1024580000230793089309930A930B930368454A4B
:1024680093420ED0444A93422DD0444A93424CD0D2
:10247800434A934256D0434A934267D00DB05DF821
:1024880004FB00210091404B1A6C42F002021A64CE
:102498001A6C02F002020092009A01911A6B42F043
:1024A80004021A631B6B03F004030193019B4FF4AE
:1024B800807307930223089309930B9307A9334862
:1024C80001F0B8FBDAE7002102912F4B1A6C42F0B9
:1024D80004021A641A6C02F004020292029A03912E
:1024E8001A6B42F008021A631B6B03F0080303938C
:1024F800039B4FF4804307930223089309930B939C
:1025080007A9234801F096FBB8E7002304931E4B64
:102518001A6C42F008021A641B6C03F00803049357
:10252800049BABE700210591174B1A6C42F010028F
:102538001A641B6C03F010030593059B0A463620AA
:1025480001F004F9362001F039F997E700210691E6
:102558000D4B1A6C42F020021A641B6C03F0200326
:102568000693069B0A46372001F0F0F8372001F061
:1025780025F983E70004004000080040000C0040F3
:1025880000100040001400400038024000080240DB
:10259800000C024000B587B0002301930293039317
:1025A8000493059302680F4B9A4202D007B05DF876
:1025B80004FB002300930C4B1A6B42F080021A6351
:1025C8001B6B03F080030093009B4FF4E0530193CF
:1025D8000223029301220392059301A9034801F003
:1025E80029FBE3E7000C004000380240001C0240D1
:1025F80000B58FB000230A930B930C930D930893A7
:102608000993019302930393049305930693079305
:102618002A482B4A0260436083606322C2600361D8
:102628008023836102F082FA002831D14FF480536D
:102638000A930AA9214802F083FB60BB1F4802F0F5
:10264800A1FA58BB00230893099308A91B4802F074
:10265800ABFC30BB602301930022029203920592E7
:1026680001A9164802F0F2FAF0B904220DEB0201B2
:10267800124802F0EBFAD0B9082201A90F4802F07B
:10268800E5FAB8B90D48FFF785FF0FB05DF804FB10
:10269800FFF702FCCAE7FFF7FFFBCFE7FFF7FCFBFA
:1026A800D0E7FFF7F9FBD5E7FFF7F6FBDDE7FFF724
:1026B800F3FBE1E7FFF7F0FBE4E700BFB803002016
:1026C800000C004008B50A480A4B03600A4B4360F7
:1026D80000238360C36003610C2242618361C3618C
:1026E80002F090FD00B908BDFFF7D6FBFBE700BF7D
:1026F800100600200010014040420F0008B50B48AA
:102708000B4B03600B4B436000238360C3604FF4A3
:10271800806202610C2242618361C36102F072FD32
:1027280000B908BDFFF7B8FBFBE700BF540600205F
:1027380000480040A086010008B50A480A4B03601B
:102748004FF4E133436000238360C36003610C22CC
:1027580042618361C36102F055FD00B908BDFFF70E
:102768009BFBFBE798060020001401402DE9F0418F
:102778008CB0044600230793089309930A930B939C
:102788000368914A934209D0904A93427ED0904A76
:10279800934200F0B7800CB0BDE8F08100250095A9
:1027A8008C4B5A6C42F010025A645A6C02F01002B8
:1027B8000092009A01951A6B42F002021A631A6B92
:1027C80002F002020192019A02951A6B42F001028C
:1027D8001A631B6B03F001030293029B8023079388
:1027E8000226089609964FF00308CDF82880072797
:1027F8000B9707A9784801F01DFA4FF40073079367
:1028080008960996CDF828800B9707A9734801F018
:1028180011FA7348734B03604FF00063436085609F
:10282800C5604FF48063036145618561C5610562D8
:10283800456201F04DF818BB694BA3639C636A4875
:102848006A4B03604FF000634360402383600023BA
:10285800C3604FF48062026143618361C3610362B4
:10286800436201F035F870B95F4B63639C630022E3
:102878001146252000F06AFF252000F09FFF8AE717
:10288800FFF70AFBD8E7FFF707FBEDE700240394FF
:10289800504B1A6C42F480221A641A6C02F480229B
:1028A8000392039A04941A6B42F004021A631B6B96
:1028B80003F004030493049B4FF400630793022579
:1028C800089509954FF00308CDF8288007270B973E
:1028D800474E07A9304601F0ADF94FF480630793DE
:1028E80008950994CDF828800B9707A9304601F080
:1028F800A1F922462146272000F028FF272000F0D2
:102908005DFF48E700250595324B5A6C42F02002DE
:102918005A645A6C02F020020592059A06951A6BC1
:1029280042F040021A631B6B03F040030693069BB8
:102938004FF48443079302230893099303230A93CC
:1029480008230B9307A92B4801F074F92A482B4B4D
:1029580003604FF0206343608560C5604FF4806377
:10296800036145618561C5610562456200F0B0FF9C
:1029780018BB214BA3639C632148224B03604FF093
:1029880020634360402383600023C3604FF4806268
:10299800026143618361C3610362436200F098FF8F
:1029A80070B9174B63639C6300221146472000F0FF
:1029B800CDFE472000F002FFEDE6FFF76DFAD8E7FD
:1029C800FFF76AFAEDE700BF001001400048004039
:1029D8000014014000380240000402400000024098
:1029E8009004002040640240F0040020B8640240D3
:1029F80000080240001802405005002028640240E8
:102A0800B0050020A0640240DFF834D00D480E491C
:102A18000E4A002302E0D458C4500433C4188C4230
:102A2800F9D30B4A0B4C002301E013600432A24295
:102A3800FBD3FFF749FC03F023F9FFF785FA70474A
:102A4800000002200000002038010020785F000804
:102A580038010020900A0020FEE7000010B5044667
:102A68000E4B1A784FF47A73B3FBF2F30C4A1068E2
:102A7800B0FBF3F000F0B0FE68B90F2C01D90120CB
:102A88000AE0002221464FF0FF3000F05FFE054BC0
:102A98001C60002000E0012010BD00BF04000020E1
:102AA800000000200800002008B50B4B1A6842F40B
:102AB80000721A601A6842F480621A601A6842F456
:102AC80080721A60032000F02FFE0F20FFF7C6FF68
:102AD800FFF740FB002008BD003C0240034A116894
:102AE800034B1B780B441360704700BFDC060020C3
:102AF80004000020014B1868704700BFDC06002066
:102B08004A4B5A6822F440325A605A6841680A436C
:102B18005A600268536823F48073536002685368EC
:102B2800016943EA012353600268536823F0407344
:102B380053600268536881680B4353600268936866
:102B480023F40063936002689368C1680B43936041
:102B5800826A374B9A4257D00268936823F07063B1
:102B6800936002689368816A0B4393600268936874
:102B780023F04053936002689368C16A0B439360E3
:102B88000268936823F00203936002689368017EE9
:102B980043EA4103936090F82030002B3FD002684D
:102BA800536843F4006353600268536823F4604336
:102BB800536001684B68426A013A43EA42334B600A
:102BC8000268D36A23F47003D3620168CB6AC269CE
:102BD800013A43EA0253CB620268936823F4007314
:102BE80093600268936890F8301043EA4123936039
:102BF8000268936823F4806393600268936841696C
:102C080043EA8123936070470268936823F07063F6
:102C180093600268936823F040539360B0E70268BA
:102C2800536823F400635360CAE700BF00230140E0
:102C38000100000F38B310B50446036C43B1236C90
:102C480013F0100F0BD00120002384F83C3010BD86
:102C5800FEF7D0FE0023636484F83C30EFE7236C72
:102C680023F4885323F0020343F00203236420462D
:102C7800FFF746FF00206064236C23F0030343F052
:102C880001032364E0E701207047704770477047ED
:102C980070B5044603681E685D6816F0020F2FD0F1
:102CA80005F0200262B3026C12F0100F03D1026C1F
:102CB80042F4007202649A6812F0405F19D1227ED1
:102CC800BAB9DA6A12F4700F03D09A6812F4806FF6
:102CD8000FD15A6822F020025A60236C23F48073C3
:102CE8002364236C13F4805F03D1236C43F0010346
:102CF80023642046FFF7C9FF23686FF012021A60A9
:102D080005F0800316F0040F37D0002B35D0236C64
:102D180013F0100F03D1236C43F40053236423688A
:102D28009A6812F4401F21D19A6B12F4401F03D005
:102D38009A6812F4806F19D15A6812F4806F15D10D
:102D48009A6812F0405F11D1227E7AB95A6822F04F
:102D580080025A60236C23F480532364236C13F499
:102D6800807F03D1236C43F001032364204600F0E5
:102D7800FBF823686FF00C021A6005F0400316F0A8
:102D8800010F05D023B123681B6813F0010F06D18A
:102D980005F0806516F0200F00D065B970BD236C72
:102DA80043F4803323642046FFF770FF23686FF0F5
:102DB80001021A60ECE7636C43F002036364236862
:102DC8006FF020051D602046FFF761FF23681D6036
:102DD800E4E7000030B482B00022019290F83C2071
:102DE800012A00F0B6800346012280F83C200A68D8
:102DF800092A40D90468E06892B202EB42021E3AFE
:102E08004FF0070C0CFA02F220EA0202E2601C689A
:102E1800E0680A8802EB42021E3A8D6805FA02F25F
:102E28000243E2604A68062A3CD81C68606B02EBE1
:102E38008202053A4FF01F0C0CFA02F220EA020255
:102E480062631C68606B4A6802EB8202053AB1F85B
:102E580000C00CFA02F20243626318683E4A9042CC
:102E680050D018683C4A904255D0002083F83C0066
:102E780002B030BC70470468206992B202EB42028B
:102E88004FF0070C0CFA02F220EA020222611C68D9
:102E980020690A8802EB42028D6805FA02F20243B1
:102EA8002261BFE70C2A16D81D68286B02EB820244
:102EB800233A1F2404FA02F220EA02022A631D6858
:102EC800286B4A6802EB8202233A0C8804FA02F261
:102ED80002432A63C1E71D68E86A02EB8202413AAD
:102EE8001F2404FA02F220EA0202EA621D68E86A74
:102EF8004A6802EB8202413A0C8804FA02F2024361
:102F0800EA62AAE70A68122AABD11448426842F476
:102F180080024260A5E70A68103A012AA5D80F483E
:102F2800426842F4000242600A68102A9DD10C4AA5
:102F380012680C49A1FB0212920C02EB82025200A9
:102F4800019202E0019A013A0192019A002AF9D10C
:102F58008BE702208CE700BF0020014000230140DE
:102F68000000002083DE1B437047002800F0A1808A
:102F780038B5044690F82030D3B12268136843F07E
:102F880001031360FFF7B6FD054623685A6812F07F
:102F9800010F10D1FFF7AEFD401B0A28F5D9636A6F
:102FA80043F400336362052384F82030012038BDE0
:102FB800FEF7A0FDE1E71A6822F002021A60FFF7A7
:102FC80099FD054623685A6812F0020F0DD0FFF7E5
:102FD80091FD401B0A28F5D9636A43F40033636204
:102FE800052384F820300120E1E7227E012A3DD024
:102FF8001A6822F080021A60637E012B3BD0226897
:10300800136823F040031360A37E012B39D0226894
:10301800136823F020031360E37E012B37D0226866
:10302800136843F010031360237F012B35D0226807
:10303800136823F008031360637F012B33D02268E1
:10304800136823F004031360A368E268134322693A
:103058001343626913436268013A21681343CB61E1
:1030680000206062012384F82030A0E71A6842F04B
:1030780080021A60C0E72268136843F040031360B7
:10308800C2E72268136843F020031360C4E722688C
:10309800136823F010031360C6E72268136843F02F
:1030A80008031360C8E72268136843F00403136039
:1030B800CAE701207047000090F82030013BDBB2DE
:1030C800012B05D9436A43F48023436201207047EA
:1030D80010B5474BD3F8002242F00102C3F8002292
:1030E800D3F8002222F47C52C3F80022D3F800223D
:1030F800486A42EA0022C3F800224A6902F01F0225
:10310800012000FA02F2D3F81C026FEA020C20EA4E
:103118000200C3F81C02CB69CBB9354BD3F80C02BB
:103128000CEA0000C3F80C028C884869D1F80CE05E
:1031380044EA0E44483043F830408C68088840EA36
:1031480004404C6904F1480E03EBCE035860CB6988
:10315800012B1ED08B69002B35D12548D0F80432BD
:103168000CEA0303C0F804320B699BBB2048D0F873
:1031780014320CEA0303C0F814320B6A012B30D066
:103188001B4AD2F8003223F00103C2F800320020B3
:1031980010BD174BD3F80C021043C3F80C028C88EF
:1031A8004869D1F800E044EA0E44483043F830401A
:1031B80088894C69D1F808E040EA0E40483403EBAE
:1031C800C4035860C6E70A48D0F804321343C0F86D
:1031D8000432C9E70648D0F814321343C0F8143251
:1031E800CBE70349D1F81C321343C1F81C32C7E7B7
:1031F8000064004070B5044690F82050EDB2012DEF
:1032080006D0436A43F4002343620125284670BD73
:10321800022380F820300268136823F0010313604A
:10322800FFF768FC064623685B6813F0010F0CD0B3
:10323800FFF760FC831B0A2BF5D9636A43F400335C
:103248006362052384F82030E0E700256562DDE746
:1032580030B590F820C00468A4680CF1FF3C5FFA10
:103268008CFCBCF1010F6BD814F0E05F62D0C4F3A2
:10327800016CBCF1020F05D9436A43F400034362B1
:10328800012062E0012404FA0CF41C608B68002B16
:103298003DD10D68CB68046843EA45550CF1180325
:1032A8001B01E55003680C690CF1180E03EB0E13B3
:1032B8005C600B7D012B35D0D17993791B0443EAEF
:1032C8000163517943EA012314790168234301EB2F
:1032D8000C11C1F88C31D17893781B0443EA01634F
:1032E800517843EA0123117802680B4302EB0C1270
:1032F800C2F8883102680CF1180C4FEA0C1C52F81D
:103308000C3043F0010342F80C3000201DE04C68FB
:1033180043EAC403CC6823430CF11804240105686C
:103328002B51BFE7036803EB0E13596841F4807112
:103338005960C1E7436A43F400134362012004E083
:10334800436A43F480234362012030BD90F820C0D3
:103358000CF1FF3C5FFA8CFCBCF1010F00F29B8082
:1033680010B451B90468E46814F0030F10D1436A2B
:1033780043F40013436201207BE00468246914F0DD
:10338800030F05D1436A43F400134362012070E040
:1033980001F11B042401D0F800C05CF8044004F0DB
:1033A80004049460002C66D101F11B042401D0F8B8
:1033B80000C05CF80440640D1460046801F11B0C43
:1033C8004FEA0C1C54F80C4004F00204D460046862
:1033D8006444646804F00F04146104686444646815
:1033E800C4F307249461046864446468240C546139
:1033F800026802EB0112D2F8B8211A70026802EBD7
:103408000112D2F8B821C2F307225A70026802EBFF
:103418000112D2F8B821C2F307429A70026802EB8F
:103428000112D2F8B821120EDA70026802EB01120A
:10343800D2F8BC211A71026802EB0112D2F8BC2141
:10344800C2F307225A71026802EB0112D2F8BC21BA
:10345800C2F307429A71026802EB0112D2F8BC214A
:10346800120EDA7189B90268D36843F02003D36079
:10347800002010BC704701F11B042401D0F800C0E3
:103488005CF80440E408546097E70268136943F065
:1034980020031361ECE7436A43F48023436201206D
:1034A800704790F82030013BDBB2012B05D9436A05
:1034B80043F48023436201207047026853690B4339
:1034C80053610020704770477047704770477047D6
:1034D80070477047704770477047704770472DE9CD
:1034E800F84F054603685C69D3F804809F68D3F8F1
:1034F8000CB0D3F810A0D3F8189014F001063BD004
:1035080017F0010616D001229A6017F0020F08D1B1
:1035180017F0040F0CD117F0080606D04FF48056A8
:1035280008E0FFF7D0FF002604E0FFF7CFFF01E037
:103538004FF4006617F4807F0DD02B684FF480722B
:103548009A6017F4007F40F0868017F4806F00F0CF
:10355800868046F4005617F4803F0DD02B684FF450
:1035680080329A6017F4003F40F0838017F4802F70
:1035780000F0838046F4004614F0080F07D01BF0D3
:10358800100F04D046F400762B681022DA6014F08D
:10359800040F02D01BF0080F79D114F0020F04D0E9
:1035A8002B68DB6813F0030F78D114F0400F07D0B5
:1035B8001AF0100F04D046F480662B6810221A61A6
:1035C80014F0200F02D01AF0080F6BD114F0100F6E
:1035D80004D02B681B6913F0030F6AD114F4003F61
:1035E80002D018F0100F68D114F4803F02D018F000
:1035F800080F69D114F4004F7AD018F0040F74D072
:1036080014F4807F04D019F0010F01D046F00106B0
:1036180014F4007F04D019F0020F01D046F002061E
:1036280014F4806F04D019F0040F01D046F004069A
:1036380014F4006F59D019F0700956D0B9F1400F41
:1036480065D058D8B9F1200F5ED0B9F1300F42D10A
:1036580046F0200644E02846FFF736FF7BE717F4DC
:10366800006F02D046F4804675E72846FFF72FFF23
:1036780071E72846FFF729FF7EE717F4002F02D0ED
:1036880046F4803678E72846FFF722FF74E72B6870
:103698000822DA602846FFF71CFF7EE7284602F07A
:1036A8000BF882E72B6808221A612846FFF713FFF8
:1036B8008CE72846FFF70EFF90E72B6810225A6028
:1036C8002846FFF709FF8FE72B6808225A6028462B
:1036D800FFF703FF8EE7B9F1100F01D146F0080696
:1036E8002A68936923F0700393612B6804225A6057
:1036F8009EB9BDE8F88FB9F1500F0BD0B9F1600F42
:10370800EED146F48076EBE746F01006E8E746F09F
:103718004006E5E746F08006E2E76B6A33436B62F2
:103728002846FFF7DBFEE4E7074AD36823F4E063A3
:103738001B041B0C000200F4E060034343F0BF636A
:1037480043F40033D360704700ED00E000B5194B37
:10375800DB68C3F30223C3F1070CBCF1040F28BFD5
:103768004FF0040C03F1040EBEF1060F18D9033B09
:103778004FF0FF3E0EFA0CFC21EA0C0199400EFABC
:1037880003FE22EA0E020A4300280BDB1201D2B222
:1037980000F1604000F5614080F800235DF804FB0B
:1037A8000023E5E700F00F001201D2B2024B1A54D1
:1037B800F4E700BF00ED00E014ED00E0002807DBAF
:1037C80000F01F02400901239340024A42F82030CA
:1037D800704700BF00E100E00138B0F1807F0BD2F4
:1037E8004FF0E0235861054AF02182F823100020A9
:1037F800986107221A6170470120704700ED00E0C8
:1038080010B40368D9B210390B4AA2FB014212095D
:103818000A4CA25CC2655F2908D923F47F7323F0A0
:10382800030304338365806D10BC704723F47F73F2
:1038380023F003038365F6E7ABAAAAAAE85D0008AC
:10384800836A826992B9012B0AD0022B02D00BB18C
:1038580000207047C36A13F0807F28D1002070478A
:10386800C36AB3F1C07F24D000207047B2F5005F6F
:1038780009D0022B25D9032B25D1C36A13F0807FE9
:1038880023D100207047032B03D8DFE803F014048A
:10389800140A00207047C36A13F0807F0DD10020FE
:1038A8007047C36AB3F1C07F09D000207047012078
:1038B80070470120704701207047012070470120A0
:1038C80070470120704700207047012070470000B2
:1038D80070B50446FFF70EF9002C5BD005460223AD
:1038E80084F83530002384F834302268136823F0D4
:1038F8000103136023681A6812F0010F0AD0FFF75A
:10390800F9F8431B052BF5D920236365032084F8B8
:10391800350070BD1A68204911406268A0680243EA
:10392800E06802432069024360690243A0690243D8
:10393800E0690243206A02430A43616A04291ED0EF
:103948001A602668756925F00705636A1D43042B0C
:1039580007D1A36A1D43E36A1BB12046FFF770FF36
:1039680090B975612046FFF74BFFE26D3F23934006
:10397800836000206065012384F83530C9E7E16A77
:10398800206B01430A43DBE740236365012084F889
:103998003500BEE70120BCE73F8010F070B5044653
:1039A800866DFFF7A7F894F83530DBB2022B06D006
:1039B80080236365002384F83430012070BD0546F8
:1039C8002268136823F0160313602268536923F0F2
:1039D80080035361236CE3B12268136823F0080362
:1039E80013602268136823F00103136023681B68BF
:1039F80013F0010F11D0FFF77DF8431B052BF5D904
:103A080020236365032084F83500002384F83430CC
:103A1800D4E7A36C002BDFD1E3E7E26D3F239340AB
:103A2800B360012384F83530002084F83400C5E7FA
:103A380090F83530DBB2022B03D080234365012098
:103A48007047052380F835300268136823F00103B6
:103A58001360002070470000F0B583B004460023CF
:103A68000193724B1D68724BA3FB0535AD0A876D38
:103A78003E68C26D08239340334210D003681A6829
:103A880012F0040F0BD01A6822F004021A60C26DFB
:103A980008239340BB60436D43F001034365E26D27
:103AA80001239340334209D02268526912F0800FF3
:103AB80004D0BB60636D43F002036365E26D0423C9
:103AC8009340334209D02268126812F0020F04D0E2
:103AD800BB60636D43F004036365E26D102393409C
:103AE800334224D02268126812F0080F1FD0BB603E
:103AF80023681A6812F4802F0DD01B6813F4002F66
:103B080004D1236C9BB12046984710E0A36C73B195
:103B1800204698470BE01A6812F4807F03D11A6890
:103B280022F008021A60236C0BB120469847E26D18
:103B380020239340334255D02268126812F0100FA8
:103B480050D0BB6094F83530DBB2052B0ED023681B
:103B58001A6812F4802F33D01B6813F4002F2AD16F
:103B6800636C002B3ED0204698473BE022681368E0
:103B780023F0160313602268536923F0800353610E
:103B8800236CA3B12268136823F008031360E26D65
:103B98003F239340BB60012384F83530002384F829
:103BA8003430236D002B3FD0204698473CE0A36C6F
:103BB800002BE7D1EBE7E36BA3B12046984711E070
:103BC8001A6812F4807F09D11A6822F010021A606C
:103BD800012384F83530002384F83430E36B0BB1CB
:103BE80020469847636DFBB1636D13F0010F17D042
:103BF800052384F835302268136823F00103136025
:103C0800019B01330193AB4204D823681B6813F06E
:103C1800010FF5D1012384F83530002384F83430BE
:103C2800E36C0BB12046984703B0F0BD00000020BC
:103C3800B5814E1B00230F2B00F2EC8030B583B00A
:103C480068E085684FEA430E032404FA0EF425EA77
:103C58000405CC6804FA0EF42C438460446824EA12
:103C680002044A68C2F300129A40224342605FE0AD
:103C7800DC08083450F8242003F00705AD004FF0A5
:103C88000F0E0EFA05FE22EA0E0E0A69AA4042EA53
:103C98000E0240F824205FE0072200E0002202FA2A
:103CA8000EF22A4302345C4D45F824205B4A94689E
:103CB8006FEA0C0224EA0C05D1F804E01EF4801F18
:103CC80001D04CEA0405554CA560E46802EA0405F5
:103CD800D1F804E01EF4001F01D04CEA04054F4C53
:103CE800E560646802EA0405D1F804E01EF4003FC8
:103CF80001D04CEA0405494C6560246822404D68AF
:103D080015F4803F01D04CEA0402444C2260013390
:103D18000F2B7DD801229A400C6804EA020C32EA83
:103D28000404F4D14C6804F00304013C012C88D944
:103D38004A6802F00302032A09D0C4685D0003221E
:103D4800AA4024EA02048A68AA402243C2604A6858
:103D580002F00302022A8BD004684FEA430E0322C2
:103D680002FA0EF224EA02044A6802F0030202FA96
:103D78000EF2224302604A6812F4403FC7D0002284
:103D88000192274A546C44F480445464526C02F4FF
:103D980080420192019A9C08A51C1F4A52F825509E
:103DA80003F0030E4FEA8E0E0F2202FA0EF225EAF6
:103DB80002051C4A90423FF471AF02F580629042BE
:103DC8001AD002F58062904218D002F580629042C3
:103DD80016D002F58062904214D002F580629042BB
:103DE80012D002F58062904210D002F580629042B3
:103DF8003FF452AF082252E7012250E702224EE771
:103E080003224CE704224AE7052248E7062246E750
:103E180003B030BD704700BF00380140003C01408E
:103E280000380240000002400AB18161704709046D
:103E38008161704740B338B5044603684CF6CC42FC
:103E48001A60036845F255521A60036842685A605E
:103E5800036882689A60FEF74DFE05462368DA68B3
:103E680012F0030F0BD0FEF745FE401B3128F5D9A1
:103E78002368DB6813F0030FF0D0032003E04AF651
:103E8800AA221A60002038BD0120704703684AF64C
:103E9800AA221A6000207047002800F0E08170B55F
:103EA80082B00446036813F0010F3BD09F4B9B6818
:103EB80003F00C03042B2CD09C4B9B6803F00C03E1
:103EC800082B21D06368B3F5803F4FD0B3F5A02FFE
:103ED80052D0964B1A6822F480321A601A6822F47B
:103EE80080221A606368002B50D0FEF703FE054657
:103EF8008E4B1B6813F4003F14D1FEF7FBFD401BEB
:103F08006428F5D90320B1E1884B5B6813F4800F6E
:103F1800D8D0864B1B6813F4003F03D06368002B8E
:103F280000F09F81236813F0020F54D07F4B9B68E9
:103F380013F00C0F3ED07D4B9B6803F00C03082B4D
:103F480033D0E368002B68D0794B01221A60FEF762
:103F5800D1FD0546754B1B6813F0020F54D1FEF7CF
:103F6800C9FD401B0228F5D903207FE16F4A136879
:103F780043F480331360B5E76C4B1A6842F480222F
:103F88001A601A6842F480321A60ABE7FEF7B2FD95
:103F98000546664B1B6813F4003FC3D0FEF7AAFD25
:103FA800401B6428F5D9032060E1604B5B6813F47B
:103FB800800FC6D15D4B1B6813F0020F03D0E36876
:103FC800012B40F05081594A136823F0F803216906
:103FD80043EAC1031360236813F0080F42D06369F2
:103FE8006BB3534B0122C3F8802EFEF783FD0546C1
:103FF8004E4B5B6F13F0020F34D1FEF77BFD401B75
:104008000228F5D9032031E1484A136823F0F80360
:10401800216943EAC1031360DDE7454B00221A60BA
:10402800FEF768FD0546414B1B6813F0020FD2D01E
:10403800FEF760FD401B0228F5D9032016E13C4B32
:104048000022C3F8802EFEF755FD0546374B5B6FFF
:1040580013F0020F06D0FEF74DFD401B0228F5D9DC
:10406800032003E1236813F0040F77D02F4B1B6C58
:1040780013F0805F33D1002301932C4B1A6C42F06C
:1040880080521A641B6C03F080530193019B012535
:10409800284B1B6813F4807F23D0A368012B34D0EE
:1040A800052B38D0214B1A6F22F001021A671A6FBC
:1040B80022F004021A67A368002B3DD0FEF71AFD10
:1040C80006461A4B1B6F13F0020F46D1FEF712FD7E
:1040D800801B41F288339842F3D90320C6E00025BB
:1040E800D6E7144A136843F480731360FEF702FDA1
:1040F8000646104B1B6813F4807FCED1FEF7FAFCFE
:10410800801B0228F5D90320B0E0084A136F43F05A
:1041180001031367CFE7054B1A6F42F004021A67D1
:104128001A6F42F001021A67C5E700BF0038024063
:104138000000474200700040FEF7DCFC0646524B88
:104148001B6F13F0020F08D0FEF7D4FC801B41F25E
:1041580088339842F3D9032088E0EDB9A369002B8E
:1041680000F08380484A926802F00C02082A51D075
:10417800022B17D0454B00221A66FEF7BBFC0446FB
:10418800414B1B6813F0007F42D0FEF7B3FC001BC5
:104198000228F5D9032069E03B4A136C23F08053C9
:1041A8001364DBE7394B00221A66FEF7A3FC0546C9
:1041B800354B1B6813F0007F06D0FEF79BFC401BB5
:1041C8000228F5D9032051E0E369226A1343626AA1
:1041D80043EA8213A26A5208013A43EA0243E26AB6
:1041E80043EA0263284A5360284B01221A66FEF705
:1041F80081FC0446244B1B6813F0007F06D1FEF7B0
:1042080079FC001B0228F5D903202FE000202DE0BF
:1042180000202BE0012B2BD01B4B5B6803F48001A3
:10422800E269914226D103F03F02216A8A4223D1F2
:10423800616A47F6C0721A40B2EB811F1ED103F4BF
:104248004031A26A5208013AB1EB024F18D103F08B
:104258007063E26AB3EB026F14D1002006E001201C
:104268007047012002E0012000E0002002B070BD8C
:104278000120FBE70120F9E70120F7E70120F5E736
:104288000120F3E70120F1E700380240000047422F
:1042980008B5264B9B6803F00C03042B41D0082B70
:1042A80041D1224B5A6802F03F025B6813F4800F39
:1042B80012D01E4B5968C1F388111D480023A1FB79
:1042C8000001FCF771FA194B5B68C3F30143013332
:1042D8005B00B0FBF3F027E0144B5868C0F388107C
:1042E8004FEA401CBCEB000C6EEB0E0E4FEA8E132F
:1042F80043EA9C634FEA8C11B1EB0C0163EB0E03AC
:10430800DB0043EA5173C90011EB000C43F10003D1
:10431800990200234FEA8C2041EA9C51FCF744FAA9
:10432800D1E7034800E0034808BD00BF0038024059
:10433800001BB7000024F400002800F09B8070B533
:104348000D4604464F4B1B6803F007038B4208D207
:10435800CBB24C4A1370136803F007038B4240F04A
:104368008B80236813F0020F17D013F0040F04D0CA
:10437800454A936843F4E0539360236813F0080FA9
:1043880004D0414A936843F4604393603E4A93687B
:1043980023F0F003A1680B439360236813F0010F27
:1043A80032D06368012B21D09A1E012A25D9364ABA
:1043B800126812F0020F61D033498A6822F00302B2
:1043C80013438B60FEF796FB06462F4B9B6803F062
:1043D8000C036268B3EB820F16D0FEF78BFB801BD1
:1043E80041F288339842F0D9032042E0264A126805
:1043F80012F4003FE0D101203BE0234A126812F09A
:10440800007FD9D1012034E01E4B1B6803F007035D
:10441800AB4207D9EAB21B4B1A701B6803F00703BB
:10442800AB422DD1236813F0040F06D0164A9368C7
:1044380023F4E053E1680B439360236813F0080FFB
:1044480007D0114A936823F46043216943EAC10302
:104458009360FFF71DFF0C4B9B68C3F303130B4AD4
:10446800D35CD8400A4B18600A4B1868FEF7F6FA76
:10447800002070BD012070470120FAE70120F8E70D
:104488000120F6E7003C024000380240D05D0008F9
:104498000000002008000020014B1868704700BF8A
:1044A8000000002008B5FFF7F7FF044B9B68C3F333
:1044B8008223034AD35CD84008BD00BF00380240BD
:1044C800E05D000808B5FFF7E7FF044B9B68C3F3FE
:1044D8004233034AD35CD84008BD00BF00380240CD
:1044E800E05D000800285AD010B50446436A33B985
:1044F8004368B3F5827F05D00023C36102E000233F
:10450800036143610023A36294F85130002B40D02B
:10451800022384F851302268136823F040031360A3
:10452800636803F48273A26802F404421343E268E6
:1045380002F400621343226902F002021343626923
:1045480002F001021343A26902F400721343E26904
:1045580002F038021343226A02F080021343A26A6F
:1045680002F40052216813430B60638B03F00403C9
:10457800626A02F01002216813434B602268D36913
:1045880023F40063D36100206065012384F851306F
:1045980010BD84F850302046FDF740FDB8E70120F3
:1045A8007047704710B584B0044602685168936834
:1045B80003F04100012867D013F0020F02D011F078
:1045C800800F68D113F4B07F68D011F0200F65D048
:1045D80013F0400F0FD094F85100C0B203285FD0F9
:1045E800606D40F00400606500200090D068009085
:1045F80090680090009813F0200F0CD0606D40F088
:10460800010060650020029090680290106820F018
:1046180040001060029A13F4807F09D0636D43F064
:10462800080363650023039323689B680393039B34
:10463800636D002B32D02268536823F0E003536087
:10464800012384F8513011F0030F31D022685368E8
:1046580023F003035360E36C4BB1174A1A65E06C0F
:10466800FFF7E6F918B1636D43F040036365A36C87
:10467800A3B1114A1A65A06CFFF7DAF970B1636D3E
:1046880043F04003636509E011F0400F94D0236CB8
:104698002046984702E0636C2046984704B010BD56
:1046A80000230193D368019393680193019BF5E775
:1046B8002046FFF776FFF1E7C546000808B5806B8E
:1046C8000023C387C386FFF76CFF08BD30B4036AB5
:1046D80023F001030362036A4268846924F0730CBF
:1046E8000C6844EA0C0423F0020C8B6843EA0C03C0
:1046F800114DA84203D005F58065A84205D123F0E5
:104708000803CD682B4323F004030B4DA84203D0C4
:1047180005F58065A84207D122F440724D6945EA43
:10472800020C8A6942EA0C02426084614A68426368
:10473800036230BC704700BF0000014030B4036A18
:1047480023F480730362036A4268C46924F0730C1B
:104758000C6844EA0C0523F400738C6843EA0423CC
:10476800114CA04203D004F58064A04206D123F482
:104778000063CC6843EA042323F480630A4CA04214
:1047880003D004F58064A04207D122F440524C695A
:1047980042EA04128C6942EA04124260C5614A681E
:1047A800C263036230BC70470000014030B4036A42
:1047B80023F480530362036A4468C26922F4E64220
:1047C8000D6842EA052223F400538D6843EA053355
:1047D800094DA84203D005F58065A84204D124F408
:1047E80080444D6944EA85144460C2614A680264A1
:1047F800036230BC704700BF0000014010B4036A78
:10480800046A24F001040462846924F0F00C4CEA80
:10481800021223F00A030B438261036210BC704743
:1048280010B4036A23F0100303628469036A24F452
:10483800704C4CEA023223F0A00343EA0113826170
:10484800036210BC7047836823F070030B4343F086
:10485800070383607047000090F83D30DBB2012BFE
:1048680037D1022380F83D300268D36843F0010352
:10487800D3600368194A934220D0B3F1804F1DD00A
:10488800A2F57C42934219D002F58062934215D07A
:1048980002F58062934211D002F5784293420DD01E
:1048A80002F57052934209D0A2F59432934205D092
:1048B8001A6842F001021A60002070479A6802F0F4
:1048C8000702062A07D01A6842F001021A6000207F
:1048D8007047012070470020704700BF000001406A
:1048E8007047704770477047704710B504460368B3
:1048F8001A6912F0020F11D0DA6812F0020F0DD007
:104908006FF002021A610123037703689B6913F0B1
:10491800030F70D0FFF7E6FF0023237723681A6997
:1049280012F0040F12D0DA6812F0040F0ED06FF0F4
:1049380004021A610223237723689B6913F4407FDA
:104948005FD02046FFF7CEFF0023237723681A693C
:1049580012F0080F12D0DA6812F0080F0ED06FF0BC
:1049680008021A61042323772368DB6913F0030F15
:104978004ED02046FFF7B6FF0023237723681A6935
:1049880012F0100F12D0DA6812F0100F0ED06FF07C
:1049980010021A61082323772368DB6913F4407F28
:1049A8003DD02046FFF79EFF0023237723681A692E
:1049B80012F0010F03D0DA6812F0010F36D1236824
:1049C8001A6912F0800F03D0DA6812F0800F34D120
:1049D80023681A6912F0400F03D0DA6812F0400F0A
:1049E80032D123681A6912F0200F03D0DA6812F066
:1049F800200F30D110BDFFF774FF2046FFF773FF7B
:104A08008AE72046FFF76DFF2046FFF76CFF9BE71C
:104A18002046FFF766FF2046FFF765FFACE7204614
:104A2800FFF75FFF2046FFF75EFFBDE76FF001026B
:104A38001A61204600F018FEC1E76FF080021A6183
:104A4800204600F0F8FAC3E76FF040021A612046EA
:104A5800FFF74AFFC5E76FF020021A61204600F011
:104A6800E9FAC7E70368304A904212D0B0F1804FA4
:104A78000FD0A2F57C4290420BD002F580629042A2
:104A880007D002F58062904203D002F57842904246
:104A980003D123F070034A681343234A90422AD073
:104AA800B0F1804F27D0A2F57C42904223D002F586
:104AB800806290421FD002F5806290421BD002F5BE
:104AC8007842904217D002F57052904213D002F506
:104AD800806290420FD002F5806290420BD0A2F51E
:104AE8009832904207D002F58062904203D002F5D6
:104AF8008062904203D123F44073CA68134323F0C1
:104B080080034A69134303608B68C3620B6883623E
:104B1800054B984203D003F58063984201D10B6995
:104B280003630123436170470000014040B310B59F
:104B3800044690F83D30F3B1022384F83D30214615
:104B480051F8040BFFF78EFF012384F8463084F8F0
:104B58003E3084F83F3084F8403084F8413084F89F
:104B6800423084F8433084F8443084F8453084F87F
:104B78003D30002010BD80F83C30FDF767FCDBE7D6
:104B88000120704740B310B5044690F83D30F3B1AA
:104B9800022384F83D30214651F8040BFFF762FFE9
:104BA800012384F8463084F83E3084F83F3084F896
:104BB800403084F8413084F8423084F8433084F837
:104BC800443084F8453084F83D30002010BD80F82A
:104BD8003C30FFF785FEDBE70120704730B4036AFD
:104BE80023F010030362036A4468826922F4E642F0
:104BF8000D6842EA052223F020038D6843EA051375
:104C0800114DA84203D005F58065A84206D123F0CE
:104C18008003CD6843EA051323F040030A4DA842F8
:104C280003D005F58065A84207D124F440644D6996
:104C380044EA85048D6944EA8504446082614A68CF
:104C48008263036230BC70470000014038B590F8B9
:104C58003C30012B66D004460D46012380F83C30D9
:104C68000C2A5AD8DFE802F0075959591B595959E3
:104C78003059595944000068FFF728FD22689369A4
:104C880043F0080393612268936923F00403936156
:104C98002268936929690B43936100203EE000680C
:104CA800FFF79CFF2268936943F4006393612268CD
:104CB800936923F48063936122689369296943EABD
:104CC80001239361002029E00068FFF737FD22687F
:104CD800D36943F00803D3612268D36923F004033E
:104CE800D3612268D36929690B43D361002015E099
:104CF8000068FFF75BFD2268D36943F40063D36162
:104D08002268D36923F48063D3612268D36929694F
:104D180043EA0123D361002000E00120002384F846
:104D28003C3038BD0220FCE710B4846824F47F4C82
:104D380042EA03220A4342EA0C02826010BC70472E
:104D480090F83C30012B78D010B50446012380F848
:104D58003C30022380F83D300268936823F47F4397
:104D680023F0770393600B68602B4CD029D8402B35
:104D780054D00CD9502B22D1CA6849680068FFF773
:104D88003DFD50212068FFF75EFD002005E0202B47
:104D98000DD009D9302B0AD00120012384F83D30E9
:104DA800002384F83C3010BD0BB1102B05D11946F7
:104DB8002068FFF748FD0020EFE70120EDE701201C
:104DC800EBE7B3F5805F34D0B3F5005F0CD1CB6867
:104DD8004A6889680068FFF7A7FF2268936843F468
:104DE800804393600020D8E7702B24D1CB684A68B1
:104DF80089680068FFF798FF2268936843F0770393
:104E080093600020C9E7CA6849680068FFF708FD91
:104E180060212068FFF717FD0020BEE7CA684968CF
:104E28000068FFF7EBFC40212068FFF70CFD00202D
:104E3800B3E70020B1E70120AFE70220704701F097
:104E48001F014FF0010C0CFA01FC036A23EA0C0362
:104E58000362036A8A4013430362704710B504462D
:104E68000846C1B994F83E30DBB2013B18BF0123B4
:104E7800002B40F0918038BB022384F83E300C2888
:104E880000F28C80DFE800F0308A8A8A6B8A8A8A8E
:104E9800718A8A8A7700042908D008290DD094F8E5
:104EA8004130DBB2013B18BF0123E1E794F83F3002
:104EB800DBB2013B18BF0123DAE794F84030DBB2DC
:104EC800013B18BF0123D3E7042805D0082807D0E1
:104ED800022384F84130D2E7022384F83F30CEE73A
:104EE800022384F84030CAE72268D36843F00203FB
:104EF800D360012201462068FFF7A1FF2368294AF1
:104F0800934203D002F58062934203D15A6C42F473
:104F180000425A642368234A934232D0B3F1804F47
:104F28002FD0A2F57C4293422BD002F580629342A7
:104F380027D002F58062934223D002F5784293424B
:104F48001FD002F5705293421BD0A2F594329342BF
:104F580017D01A6842F001021A6000201FE0226888
:104F6800D36843F00403D360C3E72268D36843F0EF
:104F78000803D360BDE72268D36843F01003D36009
:104F8800B7E79A6802F00702062A09D01A6842F0C1
:104F980001021A60002002E0012000E0012010BD9B
:104FA8000020FCE70000014090F83C20012A3CD09A
:104FB80010B40346012280F83C20022280F83D20EC
:104FC80002685068946820F0700C086840EA0C0089
:104FD80050601A68164882421AD0B2F1804F17D032
:104FE800A0F57C40824213D000F5806082420FD049
:104FF80000F5806082420BD000F57840824207D0ED
:1050080000F57050824203D0A0F59430824204D15A
:1050180024F08004496821439160012283F83D20EF
:10502800002083F83C0010BC70470220704700BF86
:105038000000014070477047026802F10C0353E812
:10504800003F23F490730C3242E800310029F3D179
:10505800026802F1140353E8003F23F001031432FD
:1050680042E800310029F3D1036B012B05D020233E
:1050780080F83E30002303637047026802F10C0396
:1050880053E8003F23F010030C3242E800310029B6
:10509800F3D1ECE790F83D30DBB2212B01D00220B0
:1050A80070478368B3F5805F17D0036A5A1C0262A1
:1050B8001A7803685A60C38C9BB2013B9BB2C384C5
:1050C8004BB90268D36823F08003D3600268D368C1
:1050D80043F04003D360002070470369002BE4D1FC
:1050E800036A1B880268C3F308035360036A023328
:1050F8000362E0E710B504460268136923F44053DD
:10510800C1680B431361836802691A4343691A43F0
:10511800C3691A430168CB6823F4164323F00C03D0
:105128001343CB600268536923F4407381690B43CE
:1051380053610368314A934206D002F58062934274
:1051480002D0FFF7AFF901E0FFF7BCF9E369B3F567
:10515800004F29D00021031849411B1841F10001D3
:10516800C90041EA5371DB00181863684FEA8302EB
:105178004FEA937341F10001FBF716FB204AA2FBAB
:1051880000314909642303FB11031B013233A2FBDD
:1051980003235B0903F0F00202EB011203F00F0393
:1051A800216813448B6010BD0023021843EB0301F0
:1051B800121841F10001C90041EA5271D2001018D9
:1051C80041F10001626892185B41FBF7EDFA0C4A65
:1051D800A2FB00314909642303FB1103DB003233CE
:1051E800A2FB03235B095A0002F4F87202EB0112D6
:1051F80003F00703216813448B60D4E700100140D3
:105208001F85EB5158B310B5044690F83D300BB3E9
:10521800242384F83D302268D36823F40053D360F4
:105228002046FFF767FF2268136923F49043136150
:105238002268536923F02A0353612268D36843F430
:105248000053D36000202064202384F83D3084F884
:105258003E3010BD80F83C30FDF788FAD8E70120D1
:105268007047704708B50168CA6822F04002CA60F2
:10527800202280F83D20FFF7F4FF002008BD70478A
:1052880008B5806B0023C385C384FFF7F8FF08BD0A
:10529800704790F83E30DBB2222B67D18368B3F5B4
:1052A800805F4DD0826AB3F5805F04D0002B54D163
:1052B8000369002B51D103685B681370836A01335B
:1052C8008362C38D9BB2013B9BB2C385002B4FD138
:1052D80000B583B00268D36823F02003D360026866
:1052E800D36823F48073D3600268536923F0010301
:1052F8005361202380F83E30036B012B33D1002308
:105308000363026802F10C0353E8003F23F0100323
:105318000C3242E800310029F3D103681A6812F010
:10532800100F06D0002201921A6801925B6801935F
:10533800019B818DFFF7ACFF002003B05DF804FBF3
:105348000269002AAED1826A03685B68C3F3080366
:105358001380836A02338362B3E703685B6803F0F0
:105368007F031370AAE700F08BF9E5E70220704786
:105378000020704730B583B0044602681368D068CF
:10538800516913F00F0505D113F0200F02D010F06A
:10539800200F19D12DB111F0010119D110F4907F0E
:1053A80016D1216B01297DD013F0800F03D010F0A6
:1053B800800F40F0158113F0400F03D010F0400F1C
:1053C80040F0128103B030BD2046FFF762FFF9E7D5
:1053D80013F0010F06D010F4807F03D0226C42F046
:1053E8000102226413F0040F04D019B1226C42F0B8
:1053F8000202226413F0020F04D019B1226C42F0A9
:105408000402226413F0080F07D010F0200F00D117
:1054180019B1226C42F008022264226C002AD1D011
:1054280013F0200F02D010F0200F29D123685B69F8
:1054380003F04003226C12F0080F00D163B320463A
:10544800FFF7FAFD23685B6913F0400F20D022684C
:1054580002F1140353E8003F23F04003143242E8FA
:1054680000310029F3D1A36B73B1614A1A65A06BAF
:10547800FEF7DEFA0028A5D0A06B036D9847A1E7D8
:105488002046FFF706FFD1E72046FFF7F8FE99E729
:105498002046FFF7F4FE95E72046FFF7F0FE0023CD
:1054A80023648FE713F0100F3FF47EAF10F0100F56
:1054B8003FF47AAF00230193136801935368019373
:1054C800019B536913F0400F50D0A26B13685B68BF
:1054D8009BB2002B3FF476AFA18D99427FF672AF55
:1054E800E385D369B3F5807F37D0226802F10C03D6
:1054F80053E8003F23F480730C3242E8003100295E
:10550800F3D1226802F1140353E8003F23F00103AA
:10551800143242E800310029F3D1226802F1140361
:1055280053E8003F23F04003143242E800310029D9
:10553800F3D1202384F83E3000232363226802F14C
:105548000C0353E8003F23F010030C3242E800310B
:105558000029F3D1A06BFEF721FAA18DE38D9BB250
:10556800C91A89B22046FFF793FE2BE7A18DE38D78
:105578009BB2C91A89B2E38D9BB2002B3FF422AFCC
:1055880000293FF41FAF226802F10C0353E8003FE3
:1055980023F490730C3242E800300028F3D12268DB
:1055A80002F1140353E8003F23F00103143242E8E8
:1055B80000300028F3D1202384F83E3000232363F1
:1055C800226802F10C0353E8003F23F010030C3269
:1055D80042E800300028F3D12046FFF759FEF1E6F3
:1055E8002046FFF757FDEDE62046FFF73BFEE9E6CC
:1055F8008952000881628285C285002303642222C1
:1056080080F83E2080F83C30036923B10268D368F3
:1056180043F48073D3600268536943F00103536114
:105628000268D36843F02003D3600020704708B5B0
:1056380090F83E30DBB2202B0DD171B17AB190F8E1
:105648003C30012B0DD0012380F83C30002303634C
:10565800FFF7D0FF00E0022008BD0120FCE7012091
:10566800FAE70220F8E7000008B50268034B9A42FF
:1056780000D008BD00F0A6F9FBE700BF001000400D
:1056880010B504460948FEF701FC2268084B1B6860
:105698009A4200D010BD122206492046FFF7C7FFE4
:1056A80000F0A2F900F0ECF9F4E700BFF0010020E7
:1056B80054060020FC01002000B58BB001AB03AA02
:1056C8000021FDF743FE039BA3F201230A2B02D915
:1056D8000BB05DF804FB044A01AB03CB10605160CA
:1056E800024800F0E9F8F3E778070020E006002018
:1056F80010B582B004460021019100910B460A467C
:1057080000F00AF9204602B010BD0000012800D0C0
:1057180070474FF6FF739942FAD130B5A3B0012311
:105728008DF87F300C4B209300238DF8873003AC25
:105738002046FFF7DDFF11AD2846FFF7D9FF019599
:1057480000940DF1870320AA0DF17F01034800F0B2
:105758003DF823B030BD00BF00001042E006002035
:1057680008B54FF6FF710120FFF7D0FF08BD000014
:10577800134B5B7A022B04D0032B06D0012B08D0E5
:105788007047104B00221A7270470E4B01221A7292
:10579800704730B583B00B4C02232372084D2B6938
:1057A80000936946204600F081F807492869FAF70E
:1057B80015FE019001A9204600F07BF803B030BD2A
:1057C80088070020E006002000007A44F0B58646ED
:1057D8001F460B7803701368436000264661866194
:1057E800C6610662466200F12804059D0FCD0FC40C
:1057F8000FCD0FC40FCD0FC495E8030084E8030054
:105808000EF1600C069C0FCCACE80F000FCCACE896
:105818000F000FCCACE80F0094E803008CE80300FD
:105828008EF808603B788EF80930AEF80A600023DD
:10583800CEF80C30CEF810307046F0BD38B50446BE
:10584800037A33B943816289110A174B19705A7068
:1058580038BD012B08D0022BF5D1437AA3B90069D2
:10586800FAF782FF6081EEE700250561008CFAF700
:105878005DFD0246294604F1600000F05FF8FAF782
:1058880073FFC0B26081DEE7012BDCD1008CFAF730
:105898004DFD0246216904F1600000F04FF8FAF767
:1058A80063FF6081CFE700BF800700200B68C360FB
:1058B80070470B680361704708B50378012B18D04F
:1058C8000BB1022B12D1134B19785A7842EA0122F4
:1058D80082829978DA7842EA0122028419795A791F
:1058E80042EA012242849B7980F82430FFF7A6FF20
:1058F80008BD084B19785A7842EA012282829978C1
:10590800DA7842EA012202841A795B7943EA0223AF
:10591800C384EBE778070020016042608360009B46
:10592800C360019B03610023036243628362436196
:105938008361C361C3620363436370472DE9F04128
:10594800044608461146A061E26100266662D4F862
:105958002080C4F82880FAF737FC054620623146D3
:10596800FAF734FC0746606221682846FAF736FDE4
:105978000646E06261683846FAF730FD2063E7685A
:105988003946FAF7E7FE00B12763A768414628467B
:10599800FAF71AFC01463846FAF720FD0546606317
:1059A800216B3046FAF712FC01462846FAF70EFC3E
:1059B800606125692946FAF7CDFE00B16561606925
:1059C800BDE8F08108B500F0E5F8FFF7D1FE08233F
:1059D800034A4FF400710348FCF72EFA08BD00BFD4
:1059E80080070020A001002070B5224C4FF0000E67
:1059F800A4F81CE0204D214EAC4630687168B268AE
:105A0800F368ACE80F00338AACF800302B7869787B
:105A180043EA0123C3F30A032380AA78530143EA24
:105A2800D103C3F30A036380EB789B0043EA921324
:105A3800297943EA8123C3F30A03A3806B79DA0146
:105A480042EA5102C2F30A02E28084F808E0C3F392
:105A580001136372012B05D0032B06D0054B0222DC
:105A68009A7770BD0122A277FBE7024B03229A774F
:105A7800F7E700BF88070020A8070020FC010020E6
:105A88002DE9F041404C2088FAF750FC4FF089414D
:105A9800FAF79AFB3D49FAF755FD8046E0606088C1
:105AA800FAF744FC4FF08941FAF78EFB3749FAF7C9
:105AB80049FD07462061A088FAF738FC4FF0894174
:105AC800FAF782FB3149FAF73DFD06466061E08846
